{
  "_format": "hh-sol-artifact-1",
  "contractName": "Treasury",
  "sourceName": "contracts/Treasury.sol",
  "abi": [
    {
      "inputs": [],
      "stateMutability": "nonpayable",
      "type": "constructor"
    },
    {
      "anonymous": false,
      "inputs": [
        {
          "indexed": true,
          "internalType": "address",
          "name": "from",
          "type": "address"
        },
        {
          "indexed": false,
          "internalType": "uint256",
          "name": "amount",
          "type": "uint256"
        }
      ],
      "name": "FeeReceived",
      "type": "event"
    },
    {
      "anonymous": false,
      "inputs": [
        {
          "indexed": true,
          "internalType": "address",
          "name": "to",
          "type": "address"
        },
        {
          "indexed": false,
          "internalType": "uint256",
          "name": "amount",
          "type": "uint256"
        }
      ],
      "name": "Withdrawn",
      "type": "event"
    },
    {
      "inputs": [],
      "name": "balance",
      "outputs": [
        {
          "internalType": "uint256",
          "name": "",
          "type": "uint256"
        }
      ],
      "stateMutability": "view",
      "type": "function"
    },
    {
      "inputs": [],
      "name": "owner",
      "outputs": [
        {
          "internalType": "address",
          "name": "",
          "type": "address"
        }
      ],
      "stateMutability": "view",
      "type": "function"
    },
    {
      "inputs": [
        {
          "internalType": "address payable",
          "name": "to",
          "type": "address"
        },
        {
          "internalType": "uint256",
          "name": "amount",
          "type": "uint256"
        }
      ],
      "name": "withdraw",
      "outputs": [],
      "stateMutability": "nonpayable",
      "type": "function"
    },
    {
      "stateMutability": "payable",
      "type": "receive"
    }
  ],
  "bytecode": "0x608060405234801561001057600080fd5b50336000806101000a81548173ffffffffffffffffffffffffffffffffffffffff021916908373ffffffffffffffffffffffffffffffffffffffff16021790555061061d806100606000396000f3fe6080604052600436106100385760003560e01c80638da5cb5b14610092578063b69ef8a8146100bd578063f3fef3a3146100e85761008d565b3661008d573373ffffffffffffffffffffffffffffffffffffffff167fbb527541f6cc244ae00ab689f8c23d072a30a3b4176021df62ea1c2bac8aa226346040516100839190610326565b60405180910390a2005b600080fd5b34801561009e57600080fd5b506100a7610111565b6040516100b49190610382565b60405180910390f35b3480156100c957600080fd5b506100d2610135565b6040516100df9190610326565b60405180910390f35b3480156100f457600080fd5b5061010f600480360381019061010a919061040c565b61013d565b005b60008054906101000a900473ffffffffffffffffffffffffffffffffffffffff1681565b600047905090565b60008054906101000a900473ffffffffffffffffffffffffffffffffffffffff1673ffffffffffffffffffffffffffffffffffffffff163373ffffffffffffffffffffffffffffffffffffffff16146101cb576040517f08c379a00000000000000000000000000000000000000000000000000000000081526004016101c2906104a9565b60405180910390fd5b8047101561020e576040517f08c379a000000000000000000000000000000000000000000000000000000000815260040161020590610515565b60405180910390fd5b60008273ffffffffffffffffffffffffffffffffffffffff168260405161023490610566565b60006040518083038185875af1925050503d8060008114610271576040519150601f19603f3d011682016040523d82523d6000602084013e610276565b606091505b50509050806102ba576040517f08c379a00000000000000000000000000000000000000000000000000000000081526004016102b1906105c7565b60405180910390fd5b8273ffffffffffffffffffffffffffffffffffffffff167f7084f5476618d8e60b11ef0d7d3f06914655adb8793e28ff7f018d4c76d505d5836040516103009190610326565b60405180910390a2505050565b6000819050919050565b6103208161030d565b82525050565b600060208201905061033b6000830184610317565b92915050565b600073ffffffffffffffffffffffffffffffffffffffff82169050919050565b600061036c82610341565b9050919050565b61037c81610361565b82525050565b60006020820190506103976000830184610373565b92915050565b600080fd5b60006103ad82610341565b9050919050565b6103bd816103a2565b81146103c857600080fd5b50565b6000813590506103da816103b4565b92915050565b6103e98161030d565b81146103f457600080fd5b50565b600081359050610406816103e0565b92915050565b600080604083850312156104235761042261039d565b5b6000610431858286016103cb565b9250506020610442858286016103f7565b9150509250929050565b600082825260208201905092915050565b7f54726561737572793a206f6e6c79206f776e6572000000000000000000000000600082015250565b600061049360148361044c565b915061049e8261045d565b602082019050919050565b600060208201905081810360008301526104c281610486565b9050919050565b7f54726561737572793a20696e73756666696369656e742062616c616e63650000600082015250565b60006104ff601e8361044c565b915061050a826104c9565b602082019050919050565b6000602082019050818103600083015261052e816104f2565b9050919050565b600081905092915050565b50565b6000610550600083610535565b915061055b82610540565b600082019050919050565b600061057182610543565b9150819050919050565b7f54726561737572793a207769746864726177206661696c656400000000000000600082015250565b60006105b160198361044c565b91506105bc8261057b565b602082019050919050565b600060208201905081810360008301526105e0816105a4565b905091905056fea2646970667358221220a191fbb685116586b522782752c19019030379aa96611425131b1aa507c45de264736f6c63430008140033",
  "linkReferences": {},
  "deployedLinkReferences": {}
}