{
  "_format": "hh-sol-artifact-1",
  "contractName": "GovernanceLight",
  "sourceName": "contracts/GovernanceLight.sol",
  "abi": [
    {
      "inputs": [
        {
          "internalType": "address",
          "name": "_escrow",
          "type": "address"
        }
      ],
      "stateMutability": "nonpayable",
      "type": "constructor"
    },
    {
      "inputs": [],
      "name": "escrow",
      "outputs": [
        {
          "internalType": "address",
          "name": "",
          "type": "address"
        }
      ],
      "stateMutability": "view",
      "type": "function"
    },
    {
      "inputs": [
        {
          "internalType": "uint256",
          "name": "projectId",
          "type": "uint256"
        },
        {
          "internalType": "uint256",
          "name": "milestoneId",
          "type": "uint256"
        }
      ],
      "name": "getTally",
      "outputs": [
        {
          "internalType": "uint256",
          "name": "yesWeight",
          "type": "uint256"
        },
        {
          "internalType": "uint256",
          "name": "noWeight",
          "type": "uint256"
        }
      ],
      "stateMutability": "view",
      "type": "function"
    },
    {
      "inputs": [
        {
          "internalType": "uint256",
          "name": "",
          "type": "uint256"
        },
        {
          "internalType": "uint256",
          "name": "",
          "type": "uint256"
        },
        {
          "internalType": "address",
          "name": "",
          "type": "address"
        }
      ],
      "name": "hasVoted",
      "outputs": [
        {
          "internalType": "bool",
          "name": "",
          "type": "bool"
        }
      ],
      "stateMutability": "view",
      "type": "function"
    },
    {
      "inputs": [
        {
          "internalType": "address",
          "name": "_escrow",
          "type": "address"
        }
      ],
      "name": "setEscrow",
      "outputs": [],
      "stateMutability": "nonpayable",
      "type": "function"
    },
    {
      "inputs": [
        {
          "internalType": "uint256",
          "name": "",
          "type": "uint256"
        },
        {
          "internalType": "uint256",
          "name": "",
          "type": "uint256"
        }
      ],
      "name": "tallies",
      "outputs": [
        {
          "internalType": "uint256",
          "name": "yesWeight",
          "type": "uint256"
        },
        {
          "internalType": "uint256",
          "name": "noWeight",
          "type": "uint256"
        }
      ],
      "stateMutability": "view",
      "type": "function"
    },
    {
      "inputs": [
        {
          "internalType": "uint256",
          "name": "projectId",
          "type": "uint256"
        },
        {
          "internalType": "uint256",
          "name": "milestoneId",
          "type": "uint256"
        },
        {
          "internalType": "address",
          "name": "backer",
          "type": "address"
        },
        {
          "internalType": "bool",
          "name": "approve",
          "type": "bool"
        },
        {
          "internalType": "uint256",
          "name": "weight",
          "type": "uint256"
        }
      ],
      "name": "vote",
      "outputs": [],
      "stateMutability": "nonpayable",
      "type": "function"
    }
  ],
  "bytecode": "0x608060405234801561001057600080fd5b506040516109dd3803806109dd833981810160405281019061003291906100db565b806000806101000a81548173ffffffffffffffffffffffffffffffffffffffff021916908373ffffffffffffffffffffffffffffffffffffffff16021790555050610108565b600080fd5b600073ffffffffffffffffffffffffffffffffffffffff82169050919050565b60006100a88261007d565b9050919050565b6100b88161009d565b81146100c357600080fd5b50565b6000815190506100d5816100af565b92915050565b6000602082840312156100f1576100f0610078565b5b60006100ff848285016100c6565b91505092915050565b6108c6806101176000396000f3fe608060405234801561001057600080fd5b50600436106100625760003560e01c80630d39a1d31461006757806312791d8f14610097578063c10c3546146100b3578063cdae1fba146100cf578063d46615c314610100578063e2fdcc1714610131575b600080fd5b610081600480360381019061007c9190610545565b61014f565b60405161008e91906105b3565b60405180910390f35b6100b160048036038101906100ac91906105fa565b61018b565b005b6100cd60048036038101906100c89190610675565b6103b4565b005b6100e960048036038101906100e491906106a2565b6103f7565b6040516100f79291906106f1565b60405180910390f35b61011a600480360381019061011591906106a2565b610457565b6040516101289291906106f1565b60405180910390f35b610139610488565b6040516101469190610729565b60405180910390f35b6002602052826000526040600020602052816000526040600020602052806000526040600020600092509250509054906101000a900460ff1681565b60008054906101000a900473ffffffffffffffffffffffffffffffffffffffff1673ffffffffffffffffffffffffffffffffffffffff163373ffffffffffffffffffffffffffffffffffffffff1614610219576040517f08c379a0000000000000000000000000000000000000000000000000000000008152600401610210906107a1565b60405180910390fd5b60026000868152602001908152602001600020600085815260200190815260200160002060008473ffffffffffffffffffffffffffffffffffffffff1673ffffffffffffffffffffffffffffffffffffffff16815260200190815260200160002060009054906101000a900460ff16156102c8576040517f08c379a00000000000000000000000000000000000000000000000000000000081526004016102bf9061080d565b60405180910390fd5b600160026000878152602001908152602001600020600086815260200190815260200160002060008573ffffffffffffffffffffffffffffffffffffffff1673ffffffffffffffffffffffffffffffffffffffff16815260200190815260200160002060006101000a81548160ff0219169083151502179055506000600160008781526020019081526020016000206000868152602001908152602001600020905082156103905781816000016000828254610384919061085c565b925050819055506103ac565b818160010160008282546103a4919061085c565b925050819055505b505050505050565b806000806101000a81548173ffffffffffffffffffffffffffffffffffffffff021916908373ffffffffffffffffffffffffffffffffffffffff16021790555050565b60008060006001600086815260200190815260200160002060008581526020019081526020016000206040518060400160405290816000820154815260200160018201548152505090508060000151816020015192509250509250929050565b6001602052816000526040600020602052806000526040600020600091509150508060000154908060010154905082565b60008054906101000a900473ffffffffffffffffffffffffffffffffffffffff1681565b600080fd5b6000819050919050565b6104c4816104b1565b81146104cf57600080fd5b50565b6000813590506104e1816104bb565b92915050565b600073ffffffffffffffffffffffffffffffffffffffff82169050919050565b6000610512826104e7565b9050919050565b61052281610507565b811461052d57600080fd5b50565b60008135905061053f81610519565b92915050565b60008060006060848603121561055e5761055d6104ac565b5b600061056c868287016104d2565b935050602061057d868287016104d2565b925050604061058e86828701610530565b9150509250925092565b60008115159050919050565b6105ad81610598565b82525050565b60006020820190506105c860008301846105a4565b92915050565b6105d781610598565b81146105e257600080fd5b50565b6000813590506105f4816105ce565b92915050565b600080600080600060a08688031215610616576106156104ac565b5b6000610624888289016104d2565b9550506020610635888289016104d2565b945050604061064688828901610530565b9350506060610657888289016105e5565b9250506080610668888289016104d2565b9150509295509295909350565b60006020828403121561068b5761068a6104ac565b5b600061069984828501610530565b91505092915050565b600080604083850312156106b9576106b86104ac565b5b60006106c7858286016104d2565b92505060206106d8858286016104d2565b9150509250929050565b6106eb816104b1565b82525050565b600060408201905061070660008301856106e2565b61071360208301846106e2565b9392505050565b61072381610507565b82525050565b600060208201905061073e600083018461071a565b92915050565b600082825260208201905092915050565b7f476f7665726e616e63653a206f6e6c7920657363726f77000000000000000000600082015250565b600061078b601783610744565b915061079682610755565b602082019050919050565b600060208201905081810360008301526107ba8161077e565b9050919050565b7f476f7665726e616e63653a20616c726561647920766f74656400000000000000600082015250565b60006107f7601983610744565b9150610802826107c1565b602082019050919050565b60006020820190508181036000830152610826816107ea565b9050919050565b7f4e487b7100000000000000000000000000000000000000000000000000000000600052601160045260246000fd5b6000610867826104b1565b9150610872836104b1565b925082820190508082111561088a5761088961082d565b5b9291505056fea2646970667358221220d7a8f5937329d7e1ce0d3550663e87605b98f9a0ff76b2dc708a104cd5d3304364736f6c63430008140033",
  "linkReferences": {},
  "deployedLinkReferences": {}
}