{
  "_format": "hh-sol-artifact-1",
  "contractName": "Milestones",
  "sourceName": "contracts/Milestones.sol",
  "abi": [
    {
      "inputs": [
        {
          "internalType": "address",
          "name": "_escrow",
          "type": "address"
        }
      ],
      "stateMutability": "nonpayable",
      "type": "constructor"
    },
    {
      "inputs": [
        {
          "internalType": "uint256",
          "name": "projectId",
          "type": "uint256"
        },
        {
          "internalType": "uint256",
          "name": "milestoneId",
          "type": "uint256"
        }
      ],
      "name": "activateMilestone",
      "outputs": [],
      "stateMutability": "nonpayable",
      "type": "function"
    },
    {
      "inputs": [
        {
          "internalType": "uint256",
          "name": "projectId",
          "type": "uint256"
        },
        {
          "internalType": "uint256",
          "name": "amountWei",
          "type": "uint256"
        }
      ],
      "name": "createMilestone",
      "outputs": [
        {
          "internalType": "uint256",
          "name": "milestoneId",
          "type": "uint256"
        }
      ],
      "stateMutability": "nonpayable",
      "type": "function"
    },
    {
      "inputs": [],
      "name": "escrow",
      "outputs": [
        {
          "internalType": "address",
          "name": "",
          "type": "address"
        }
      ],
      "stateMutability": "view",
      "type": "function"
    },
    {
      "inputs": [
        {
          "internalType": "uint256",
          "name": "projectId",
          "type": "uint256"
        },
        {
          "internalType": "uint256",
          "name": "milestoneId",
          "type": "uint256"
        }
      ],
      "name": "getMilestone",
      "outputs": [
        {
          "internalType": "uint256",
          "name": "amountWei",
          "type": "uint256"
        },
        {
          "internalType": "bool",
          "name": "exists",
          "type": "bool"
        },
        {
          "internalType": "bool",
          "name": "fundsReleased",
          "type": "bool"
        },
        {
          "internalType": "bool",
          "name": "isActivated",
          "type": "bool"
        },
        {
          "internalType": "bool",
          "name": "votingStarted",
          "type": "bool"
        }
      ],
      "stateMutability": "view",
      "type": "function"
    },
    {
      "inputs": [
        {
          "internalType": "uint256",
          "name": "projectId",
          "type": "uint256"
        },
        {
          "internalType": "uint256",
          "name": "milestoneId",
          "type": "uint256"
        }
      ],
      "name": "markReleased",
      "outputs": [],
      "stateMutability": "nonpayable",
      "type": "function"
    },
    {
      "inputs": [
        {
          "internalType": "uint256",
          "name": "",
          "type": "uint256"
        }
      ],
      "name": "milestoneCount",
      "outputs": [
        {
          "internalType": "uint256",
          "name": "",
          "type": "uint256"
        }
      ],
      "stateMutability": "view",
      "type": "function"
    },
    {
      "inputs": [
        {
          "internalType": "uint256",
          "name": "",
          "type": "uint256"
        },
        {
          "internalType": "uint256",
          "name": "",
          "type": "uint256"
        }
      ],
      "name": "milestones",
      "outputs": [
        {
          "internalType": "uint256",
          "name": "amountWei",
          "type": "uint256"
        },
        {
          "internalType": "bool",
          "name": "exists",
          "type": "bool"
        },
        {
          "internalType": "bool",
          "name": "fundsReleased",
          "type": "bool"
        },
        {
          "internalType": "bool",
          "name": "isActivated",
          "type": "bool"
        },
        {
          "internalType": "bool",
          "name": "votingStarted",
          "type": "bool"
        }
      ],
      "stateMutability": "view",
      "type": "function"
    },
    {
      "inputs": [
        {
          "internalType": "address",
          "name": "_escrow",
          "type": "address"
        }
      ],
      "name": "setEscrow",
      "outputs": [],
      "stateMutability": "nonpayable",
      "type": "function"
    },
    {
      "inputs": [
        {
          "internalType": "uint256",
          "name": "projectId",
          "type": "uint256"
        },
        {
          "internalType": "uint256",
          "name": "milestoneId",
          "type": "uint256"
        }
      ],
      "name": "startVoting",
      "outputs": [],
      "stateMutability": "nonpayable",
      "type": "function"
    }
  ],
  "bytecode": "0x60806040523480156200001157600080fd5b50604051620010b0380380620010b08339818101604052810190620000379190620000e8565b806000806101000a81548173ffffffffffffffffffffffffffffffffffffffff021916908373ffffffffffffffffffffffffffffffffffffffff160217905550506200011a565b600080fd5b600073ffffffffffffffffffffffffffffffffffffffff82169050919050565b6000620000b08262000083565b9050919050565b620000c281620000a3565b8114620000ce57600080fd5b50565b600081519050620000e281620000b7565b92915050565b6000602082840312156200010157620001006200007e565b5b60006200011184828501620000d1565b91505092915050565b610f86806200012a6000396000f3fe608060405234801561001057600080fd5b50600436106100935760003560e01c80638ed9895c116100665780638ed9895c1461013457806390fe560914610168578063c10c354614610184578063d3e4bd95146101a0578063e2fdcc17146101d057610093565b80630d75a82f146100985780631c376c63146100b457806372ebb42a146100e8578063871b114e14610118575b600080fd5b6100b260048036038101906100ad9190610a74565b6101ee565b005b6100ce60048036038101906100c99190610a74565b610369565b6040516100df959493929190610ade565b60405180910390f35b61010260048036038101906100fd9190610b31565b6103e0565b60405161010f9190610b5e565b60405180910390f35b610132600480360381019061012d9190610a74565b6103f8565b005b61014e60048036038101906101499190610a74565b610573565b60405161015f959493929190610ade565b60405180910390f35b610182600480360381019061017d9190610a74565b610651565b005b61019e60048036038101906101999190610bd7565b61081d565b005b6101ba60048036038101906101b59190610a74565b610860565b6040516101c79190610b5e565b60405180910390f35b6101d8610a15565b6040516101e59190610c13565b60405180910390f35b60008054906101000a900473ffffffffffffffffffffffffffffffffffffffff1673ffffffffffffffffffffffffffffffffffffffff163373ffffffffffffffffffffffffffffffffffffffff161461027c576040517f08c379a000000000000000000000000000000000000000000000000000000000815260040161027390610c8b565b60405180910390fd5b600060016000848152602001908152602001600020600083815260200190815260200160002090508060010160009054906101000a900460ff166102f5576040517f08c379a00000000000000000000000000000000000000000000000000000000081526004016102ec90610cf7565b60405180910390fd5b8060010160019054906101000a900460ff1615610347576040517f08c379a000000000000000000000000000000000000000000000000000000000815260040161033e90610d63565b60405180910390fd5b60018160010160016101000a81548160ff021916908315150217905550505050565b6001602052816000526040600020602052806000526040600020600091509150508060000154908060010160009054906101000a900460ff16908060010160019054906101000a900460ff16908060010160029054906101000a900460ff16908060010160039054906101000a900460ff16905085565b60026020528060005260406000206000915090505481565b60008054906101000a900473ffffffffffffffffffffffffffffffffffffffff1673ffffffffffffffffffffffffffffffffffffffff163373ffffffffffffffffffffffffffffffffffffffff1614610486576040517f08c379a000000000000000000000000000000000000000000000000000000000815260040161047d90610c8b565b60405180910390fd5b600060016000848152602001908152602001600020600083815260200190815260200160002090508060010160009054906101000a900460ff166104ff576040517f08c379a00000000000000000000000000000000000000000000000000000000081526004016104f690610cf7565b60405180910390fd5b8060010160029054906101000a900460ff1615610551576040517f08c379a000000000000000000000000000000000000000000000000000000000815260040161054890610dcf565b60405180910390fd5b60018160010160026101000a81548160ff021916908315150217905550505050565b6000806000806000806001600089815260200190815260200160002060008881526020019081526020016000206040518060a0016040529081600082015481526020016001820160009054906101000a900460ff161515151581526020016001820160019054906101000a900460ff161515151581526020016001820160029054906101000a900460ff161515151581526020016001820160039054906101000a900460ff16151515158152505090508060000151816020015182604001518360600151846080015195509550955095509550509295509295909350565b60008054906101000a900473ffffffffffffffffffffffffffffffffffffffff1673ffffffffffffffffffffffffffffffffffffffff163373ffffffffffffffffffffffffffffffffffffffff16146106df576040517f08c379a00000000000000000000000000000000000000000000000000000000081526004016106d690610c8b565b60405180910390fd5b600060016000848152602001908152602001600020600083815260200190815260200160002090508060010160009054906101000a900460ff16610758576040517f08c379a000000000000000000000000000000000000000000000000000000000815260040161074f90610cf7565b60405180910390fd5b8060010160029054906101000a900460ff166107a9576040517f08c379a00000000000000000000000000000000000000000000000000000000081526004016107a090610e3b565b60405180910390fd5b8060010160039054906101000a900460ff16156107fb576040517f08c379a00000000000000000000000000000000000000000000000000000000081526004016107f290610ecd565b60405180910390fd5b60018160010160036101000a81548160ff021916908315150217905550505050565b806000806101000a81548173ffffffffffffffffffffffffffffffffffffffff021916908373ffffffffffffffffffffffffffffffffffffffff16021790555050565b60008060009054906101000a900473ffffffffffffffffffffffffffffffffffffffff1673ffffffffffffffffffffffffffffffffffffffff163373ffffffffffffffffffffffffffffffffffffffff16146108f1576040517f08c379a00000000000000000000000000000000000000000000000000000000081526004016108e890610c8b565b60405180910390fd5b600260008481526020019081526020016000205490506040518060a00160405280838152602001600115158152602001600015158152602001600015158152602001600015158152506001600085815260200190815260200160002060008381526020019081526020016000206000820151816000015560208201518160010160006101000a81548160ff02191690831515021790555060408201518160010160016101000a81548160ff02191690831515021790555060608201518160010160026101000a81548160ff02191690831515021790555060808201518160010160036101000a81548160ff0219169083151502179055509050506001816109f89190610f1c565b600260008581526020019081526020016000208190555092915050565b60008054906101000a900473ffffffffffffffffffffffffffffffffffffffff1681565b600080fd5b6000819050919050565b610a5181610a3e565b8114610a5c57600080fd5b50565b600081359050610a6e81610a48565b92915050565b60008060408385031215610a8b57610a8a610a39565b5b6000610a9985828601610a5f565b9250506020610aaa85828601610a5f565b9150509250929050565b610abd81610a3e565b82525050565b60008115159050919050565b610ad881610ac3565b82525050565b600060a082019050610af36000830188610ab4565b610b006020830187610acf565b610b0d6040830186610acf565b610b1a6060830185610acf565b610b276080830184610acf565b9695505050505050565b600060208284031215610b4757610b46610a39565b5b6000610b5584828501610a5f565b91505092915050565b6000602082019050610b736000830184610ab4565b92915050565b600073ffffffffffffffffffffffffffffffffffffffff82169050919050565b6000610ba482610b79565b9050919050565b610bb481610b99565b8114610bbf57600080fd5b50565b600081359050610bd181610bab565b92915050565b600060208284031215610bed57610bec610a39565b5b6000610bfb84828501610bc2565b91505092915050565b610c0d81610b99565b82525050565b6000602082019050610c286000830184610c04565b92915050565b600082825260208201905092915050565b7f4d696c6573746f6e65733a206f6e6c7920657363726f77000000000000000000600082015250565b6000610c75601783610c2e565b9150610c8082610c3f565b602082019050919050565b60006020820190508181036000830152610ca481610c68565b9050919050565b7f4d696c6573746f6e65733a206e6f7420666f756e640000000000000000000000600082015250565b6000610ce1601583610c2e565b9150610cec82610cab565b602082019050919050565b60006020820190508181036000830152610d1081610cd4565b9050919050565b7f4d696c6573746f6e65733a20616c72656164792072656c656173656400000000600082015250565b6000610d4d601c83610c2e565b9150610d5882610d17565b602082019050919050565b60006020820190508181036000830152610d7c81610d40565b9050919050565b7f4d696c6573746f6e65733a20616c726561647920616374697661746564000000600082015250565b6000610db9601d83610c2e565b9150610dc482610d83565b602082019050919050565b60006020820190508181036000830152610de881610dac565b9050919050565b7f4d696c6573746f6e65733a206e6f742061637469766174656400000000000000600082015250565b6000610e25601983610c2e565b9150610e3082610def565b602082019050919050565b60006020820190508181036000830152610e5481610e18565b9050919050565b7f4d696c6573746f6e65733a20766f74696e6720616c726561647920737461727460008201527f6564000000000000000000000000000000000000000000000000000000000000602082015250565b6000610eb7602283610c2e565b9150610ec282610e5b565b604082019050919050565b60006020820190508181036000830152610ee681610eaa565b9050919050565b7f4e487b7100000000000000000000000000000000000000000000000000000000600052601160045260246000fd5b6000610f2782610a3e565b9150610f3283610a3e565b9250828201905080821115610f4a57610f49610eed565b5b9291505056fea2646970667358221220e341c772a07979bf871b85f11f28ec0308564bcde10d0adc26d7cf2fdd2f2bc564736f6c63430008140033",
  "linkReferences": {},
  "deployedLinkReferences": {}
}