{
  "_format": "hh-sol-artifact-1",
  "contractName": "Milestones",
  "sourceName": "contracts/Milestones.sol",
  "abi": [
    {
      "inputs": [
        {
          "internalType": "address",
          "name": "_escrow",
          "type": "address"
        }
      ],
      "stateMutability": "nonpayable",
      "type": "constructor"
    },
    {
      "inputs": [
        {
          "internalType": "uint256",
          "name": "projectId",
          "type": "uint256"
        },
        {
          "internalType": "uint256",
          "name": "milestoneId",
          "type": "uint256"
        }
      ],
      "name": "activateMilestone",
      "outputs": [],
      "stateMutability": "nonpayable",
      "type": "function"
    },
    {
      "inputs": [
        {
          "internalType": "uint256",
          "name": "projectId",
          "type": "uint256"
        },
        {
          "internalType": "uint256",
          "name": "amountWei",
          "type": "uint256"
        }
      ],
      "name": "createMilestone",
      "outputs": [
        {
          "internalType": "uint256",
          "name": "milestoneId",
          "type": "uint256"
        }
      ],
      "stateMutability": "nonpayable",
      "type": "function"
    },
    {
      "inputs": [],
      "name": "escrow",
      "outputs": [
        {
          "internalType": "address",
          "name": "",
          "type": "address"
        }
      ],
      "stateMutability": "view",
      "type": "function"
    },
    {
      "inputs": [
        {
          "internalType": "uint256",
          "name": "projectId",
          "type": "uint256"
        },
        {
          "internalType": "uint256",
          "name": "milestoneId",
          "type": "uint256"
        }
      ],
      "name": "getMilestone",
      "outputs": [
        {
          "internalType": "uint256",
          "name": "amountWei",
          "type": "uint256"
        },
        {
          "internalType": "bool",
          "name": "exists",
          "type": "bool"
        },
        {
          "internalType": "bool",
          "name": "fundsReleased",
          "type": "bool"
        },
        {
          "internalType": "bool",
          "name": "isActivated",
          "type": "bool"
        }
      ],
      "stateMutability": "view",
      "type": "function"
    },
    {
      "inputs": [
        {
          "internalType": "uint256",
          "name": "projectId",
          "type": "uint256"
        },
        {
          "internalType": "uint256",
          "name": "milestoneId",
          "type": "uint256"
        }
      ],
      "name": "markReleased",
      "outputs": [],
      "stateMutability": "nonpayable",
      "type": "function"
    },
    {
      "inputs": [
        {
          "internalType": "uint256",
          "name": "",
          "type": "uint256"
        }
      ],
      "name": "milestoneCount",
      "outputs": [
        {
          "internalType": "uint256",
          "name": "",
          "type": "uint256"
        }
      ],
      "stateMutability": "view",
      "type": "function"
    },
    {
      "inputs": [
        {
          "internalType": "uint256",
          "name": "",
          "type": "uint256"
        },
        {
          "internalType": "uint256",
          "name": "",
          "type": "uint256"
        }
      ],
      "name": "milestones",
      "outputs": [
        {
          "internalType": "uint256",
          "name": "amountWei",
          "type": "uint256"
        },
        {
          "internalType": "bool",
          "name": "exists",
          "type": "bool"
        },
        {
          "internalType": "bool",
          "name": "fundsReleased",
          "type": "bool"
        },
        {
          "internalType": "bool",
          "name": "isActivated",
          "type": "bool"
        }
      ],
      "stateMutability": "view",
      "type": "function"
    },
    {
      "inputs": [
        {
          "internalType": "address",
          "name": "_escrow",
          "type": "address"
        }
      ],
      "name": "setEscrow",
      "outputs": [],
      "stateMutability": "nonpayable",
      "type": "function"
    }
  ],
  "bytecode": "0x608060405234801561001057600080fd5b50604051610d3c380380610d3c833981810160405281019061003291906100db565b806000806101000a81548173ffffffffffffffffffffffffffffffffffffffff021916908373ffffffffffffffffffffffffffffffffffffffff16021790555050610108565b600080fd5b600073ffffffffffffffffffffffffffffffffffffffff82169050919050565b60006100a88261007d565b9050919050565b6100b88161009d565b81146100c357600080fd5b50565b6000815190506100d5816100af565b92915050565b6000602082840312156100f1576100f0610078565b5b60006100ff848285016100c6565b91505092915050565b610c25806101176000396000f3fe608060405234801561001057600080fd5b50600436106100885760003560e01c80638ed9895c1161005b5780638ed9895c14610128578063c10c35461461015b578063d3e4bd9514610177578063e2fdcc17146101a757610088565b80630d75a82f1461008d5780631c376c63146100a957806372ebb42a146100dc578063871b114e1461010c575b600080fd5b6100a760048036038101906100a2919061081f565b6101c5565b005b6100c360048036038101906100be919061081f565b610340565b6040516100d39493929190610889565b60405180910390f35b6100f660048036038101906100f191906108ce565b6103a4565b60405161010391906108fb565b60405180910390f35b6101266004803603810190610121919061081f565b6103bc565b005b610142600480360381019061013d919061081f565b610537565b6040516101529493929190610889565b60405180910390f35b61017560048036038101906101709190610974565b6105f1565b005b610191600480360381019061018c919061081f565b610634565b60405161019e91906108fb565b60405180910390f35b6101af6107c0565b6040516101bc91906109b0565b60405180910390f35b60008054906101000a900473ffffffffffffffffffffffffffffffffffffffff1673ffffffffffffffffffffffffffffffffffffffff163373ffffffffffffffffffffffffffffffffffffffff1614610253576040517f08c379a000000000000000000000000000000000000000000000000000000000815260040161024a90610a28565b60405180910390fd5b600060016000848152602001908152602001600020600083815260200190815260200160002090508060010160009054906101000a900460ff166102cc576040517f08c379a00000000000000000000000000000000000000000000000000000000081526004016102c390610a94565b60405180910390fd5b8060010160019054906101000a900460ff161561031e576040517f08c379a000000000000000000000000000000000000000000000000000000000815260040161031590610b00565b60405180910390fd5b60018160010160016101000a81548160ff021916908315150217905550505050565b6001602052816000526040600020602052806000526040600020600091509150508060000154908060010160009054906101000a900460ff16908060010160019054906101000a900460ff16908060010160029054906101000a900460ff16905084565b60026020528060005260406000206000915090505481565b60008054906101000a900473ffffffffffffffffffffffffffffffffffffffff1673ffffffffffffffffffffffffffffffffffffffff163373ffffffffffffffffffffffffffffffffffffffff161461044a576040517f08c379a000000000000000000000000000000000000000000000000000000000815260040161044190610a28565b60405180910390fd5b600060016000848152602001908152602001600020600083815260200190815260200160002090508060010160009054906101000a900460ff166104c3576040517f08c379a00000000000000000000000000000000000000000000000000000000081526004016104ba90610a94565b60405180910390fd5b8060010160029054906101000a900460ff1615610515576040517f08c379a000000000000000000000000000000000000000000000000000000000815260040161050c90610b6c565b60405180910390fd5b60018160010160026101000a81548160ff021916908315150217905550505050565b6000806000806000600160008881526020019081526020016000206000878152602001908152602001600020604051806080016040529081600082015481526020016001820160009054906101000a900460ff161515151581526020016001820160019054906101000a900460ff161515151581526020016001820160029054906101000a900460ff1615151515815250509050806000015181602001518260400151836060015194509450945094505092959194509250565b806000806101000a81548173ffffffffffffffffffffffffffffffffffffffff021916908373ffffffffffffffffffffffffffffffffffffffff16021790555050565b60008060009054906101000a900473ffffffffffffffffffffffffffffffffffffffff1673ffffffffffffffffffffffffffffffffffffffff163373ffffffffffffffffffffffffffffffffffffffff16146106c5576040517f08c379a00000000000000000000000000000000000000000000000000000000081526004016106bc90610a28565b60405180910390fd5b600260008481526020019081526020016000205490506040518060800160405280838152602001600115158152602001600015158152602001600015158152506001600085815260200190815260200160002060008381526020019081526020016000206000820151816000015560208201518160010160006101000a81548160ff02191690831515021790555060408201518160010160016101000a81548160ff02191690831515021790555060608201518160010160026101000a81548160ff0219169083151502179055509050506001816107a39190610bbb565b600260008581526020019081526020016000208190555092915050565b60008054906101000a900473ffffffffffffffffffffffffffffffffffffffff1681565b600080fd5b6000819050919050565b6107fc816107e9565b811461080757600080fd5b50565b600081359050610819816107f3565b92915050565b60008060408385031215610836576108356107e4565b5b60006108448582860161080a565b92505060206108558582860161080a565b9150509250929050565b610868816107e9565b82525050565b60008115159050919050565b6108838161086e565b82525050565b600060808201905061089e600083018761085f565b6108ab602083018661087a565b6108b8604083018561087a565b6108c5606083018461087a565b95945050505050565b6000602082840312156108e4576108e36107e4565b5b60006108f28482850161080a565b91505092915050565b6000602082019050610910600083018461085f565b92915050565b600073ffffffffffffffffffffffffffffffffffffffff82169050919050565b600061094182610916565b9050919050565b61095181610936565b811461095c57600080fd5b50565b60008135905061096e81610948565b92915050565b60006020828403121561098a576109896107e4565b5b60006109988482850161095f565b91505092915050565b6109aa81610936565b82525050565b60006020820190506109c560008301846109a1565b92915050565b600082825260208201905092915050565b7f4d696c6573746f6e65733a206f6e6c7920657363726f77000000000000000000600082015250565b6000610a126017836109cb565b9150610a1d826109dc565b602082019050919050565b60006020820190508181036000830152610a4181610a05565b9050919050565b7f4d696c6573746f6e65733a206e6f7420666f756e640000000000000000000000600082015250565b6000610a7e6015836109cb565b9150610a8982610a48565b602082019050919050565b60006020820190508181036000830152610aad81610a71565b9050919050565b7f4d696c6573746f6e65733a20616c72656164792072656c656173656400000000600082015250565b6000610aea601c836109cb565b9150610af582610ab4565b602082019050919050565b60006020820190508181036000830152610b1981610add565b9050919050565b7f4d696c6573746f6e65733a20616c726561647920616374697661746564000000600082015250565b6000610b56601d836109cb565b9150610b6182610b20565b602082019050919050565b60006020820190508181036000830152610b8581610b49565b9050919050565b7f4e487b7100000000000000000000000000000000000000000000000000000000600052601160045260246000fd5b6000610bc6826107e9565b9150610bd1836107e9565b9250828201905080821115610be957610be8610b8c565b5b9291505056fea2646970667358221220f680f3e4ddc173acb0ac287e70416cf8fbbf06ae4d84ccbeeb4690a4bce694f564736f6c63430008140033",
  "linkReferences": {},
  "deployedLinkReferences": {}
}