{
  "_format": "hh-sol-artifact-1",
  "contractName": "Milestones",
  "sourceName": "contracts/Milestones.sol",
  "abi": [
    {
      "inputs": [
        {
          "internalType": "address",
          "name": "_escrow",
          "type": "address"
        }
      ],
      "stateMutability": "nonpayable",
      "type": "constructor"
    },
    {
      "inputs": [
        {
          "internalType": "uint256",
          "name": "projectId",
          "type": "uint256"
        },
        {
          "internalType": "uint256",
          "name": "amountWei",
          "type": "uint256"
        }
      ],
      "name": "createMilestone",
      "outputs": [
        {
          "internalType": "uint256",
          "name": "milestoneId",
          "type": "uint256"
        }
      ],
      "stateMutability": "nonpayable",
      "type": "function"
    },
    {
      "inputs": [],
      "name": "escrow",
      "outputs": [
        {
          "internalType": "address",
          "name": "",
          "type": "address"
        }
      ],
      "stateMutability": "view",
      "type": "function"
    },
    {
      "inputs": [
        {
          "internalType": "uint256",
          "name": "projectId",
          "type": "uint256"
        },
        {
          "internalType": "uint256",
          "name": "milestoneId",
          "type": "uint256"
        }
      ],
      "name": "getMilestone",
      "outputs": [
        {
          "internalType": "uint256",
          "name": "amountWei",
          "type": "uint256"
        },
        {
          "internalType": "bool",
          "name": "exists",
          "type": "bool"
        },
        {
          "internalType": "bool",
          "name": "fundsReleased",
          "type": "bool"
        }
      ],
      "stateMutability": "view",
      "type": "function"
    },
    {
      "inputs": [
        {
          "internalType": "uint256",
          "name": "projectId",
          "type": "uint256"
        },
        {
          "internalType": "uint256",
          "name": "milestoneId",
          "type": "uint256"
        }
      ],
      "name": "markReleased",
      "outputs": [],
      "stateMutability": "nonpayable",
      "type": "function"
    },
    {
      "inputs": [
        {
          "internalType": "uint256",
          "name": "",
          "type": "uint256"
        }
      ],
      "name": "milestoneCount",
      "outputs": [
        {
          "internalType": "uint256",
          "name": "",
          "type": "uint256"
        }
      ],
      "stateMutability": "view",
      "type": "function"
    },
    {
      "inputs": [
        {
          "internalType": "uint256",
          "name": "",
          "type": "uint256"
        },
        {
          "internalType": "uint256",
          "name": "",
          "type": "uint256"
        }
      ],
      "name": "milestones",
      "outputs": [
        {
          "internalType": "uint256",
          "name": "amountWei",
          "type": "uint256"
        },
        {
          "internalType": "bool",
          "name": "exists",
          "type": "bool"
        },
        {
          "internalType": "bool",
          "name": "fundsReleased",
          "type": "bool"
        }
      ],
      "stateMutability": "view",
      "type": "function"
    },
    {
      "inputs": [
        {
          "internalType": "address",
          "name": "_escrow",
          "type": "address"
        }
      ],
      "name": "setEscrow",
      "outputs": [],
      "stateMutability": "nonpayable",
      "type": "function"
    }
  ],
  "bytecode": "0x608060405234801561001057600080fd5b50604051610abc380380610abc833981810160405281019061003291906100db565b806000806101000a81548173ffffffffffffffffffffffffffffffffffffffff021916908373ffffffffffffffffffffffffffffffffffffffff16021790555050610108565b600080fd5b600073ffffffffffffffffffffffffffffffffffffffff82169050919050565b60006100a88261007d565b9050919050565b6100b88161009d565b81146100c357600080fd5b50565b6000815190506100d5816100af565b92915050565b6000602082840312156100f1576100f0610078565b5b60006100ff848285016100c6565b91505092915050565b6109a5806101176000396000f3fe608060405234801561001057600080fd5b506004361061007d5760003560e01c80638ed9895c1161005b5780638ed9895c14610100578063c10c354614610132578063d3e4bd951461014e578063e2fdcc171461017e5761007d565b80630d75a82f146100825780631c376c631461009e57806372ebb42a146100d0575b600080fd5b61009c60048036038101906100979190610619565b61019c565b005b6100b860048036038101906100b39190610619565b610317565b6040516100c793929190610683565b60405180910390f35b6100ea60048036038101906100e591906106ba565b610368565b6040516100f791906106e7565b60405180910390f35b61011a60048036038101906101159190610619565b610380565b60405161012993929190610683565b60405180910390f35b61014c60048036038101906101479190610760565b610414565b005b61016860048036038101906101639190610619565b610457565b60405161017591906106e7565b60405180910390f35b6101866105ba565b604051610193919061079c565b60405180910390f35b60008054906101000a900473ffffffffffffffffffffffffffffffffffffffff1673ffffffffffffffffffffffffffffffffffffffff163373ffffffffffffffffffffffffffffffffffffffff161461022a576040517f08c379a000000000000000000000000000000000000000000000000000000000815260040161022190610814565b60405180910390fd5b600060016000848152602001908152602001600020600083815260200190815260200160002090508060010160009054906101000a900460ff166102a3576040517f08c379a000000000000000000000000000000000000000000000000000000000815260040161029a90610880565b60405180910390fd5b8060010160019054906101000a900460ff16156102f5576040517f08c379a00000000000000000000000000000000000000000000000000000000081526004016102ec906108ec565b60405180910390fd5b60018160010160016101000a81548160ff021916908315150217905550505050565b6001602052816000526040600020602052806000526040600020600091509150508060000154908060010160009054906101000a900460ff16908060010160019054906101000a900460ff16905083565b60026020528060005260406000206000915090505481565b600080600080600160008781526020019081526020016000206000868152602001908152602001600020604051806060016040529081600082015481526020016001820160009054906101000a900460ff161515151581526020016001820160019054906101000a900460ff1615151515815250509050806000015181602001518260400151935093509350509250925092565b806000806101000a81548173ffffffffffffffffffffffffffffffffffffffff021916908373ffffffffffffffffffffffffffffffffffffffff16021790555050565b60008060009054906101000a900473ffffffffffffffffffffffffffffffffffffffff1673ffffffffffffffffffffffffffffffffffffffff163373ffffffffffffffffffffffffffffffffffffffff16146104e8576040517f08c379a00000000000000000000000000000000000000000000000000000000081526004016104df90610814565b60405180910390fd5b600260008481526020019081526020016000205490506040518060600160405280838152602001600115158152602001600015158152506001600085815260200190815260200160002060008381526020019081526020016000206000820151816000015560208201518160010160006101000a81548160ff02191690831515021790555060408201518160010160016101000a81548160ff02191690831515021790555090505060018161059d919061093b565b600260008581526020019081526020016000208190555092915050565b60008054906101000a900473ffffffffffffffffffffffffffffffffffffffff1681565b600080fd5b6000819050919050565b6105f6816105e3565b811461060157600080fd5b50565b600081359050610613816105ed565b92915050565b600080604083850312156106305761062f6105de565b5b600061063e85828601610604565b925050602061064f85828601610604565b9150509250929050565b610662816105e3565b82525050565b60008115159050919050565b61067d81610668565b82525050565b60006060820190506106986000830186610659565b6106a56020830185610674565b6106b26040830184610674565b949350505050565b6000602082840312156106d0576106cf6105de565b5b60006106de84828501610604565b91505092915050565b60006020820190506106fc6000830184610659565b92915050565b600073ffffffffffffffffffffffffffffffffffffffff82169050919050565b600061072d82610702565b9050919050565b61073d81610722565b811461074857600080fd5b50565b60008135905061075a81610734565b92915050565b600060208284031215610776576107756105de565b5b60006107848482850161074b565b91505092915050565b61079681610722565b82525050565b60006020820190506107b1600083018461078d565b92915050565b600082825260208201905092915050565b7f4d696c6573746f6e65733a206f6e6c7920657363726f77000000000000000000600082015250565b60006107fe6017836107b7565b9150610809826107c8565b602082019050919050565b6000602082019050818103600083015261082d816107f1565b9050919050565b7f4d696c6573746f6e65733a206e6f7420666f756e640000000000000000000000600082015250565b600061086a6015836107b7565b915061087582610834565b602082019050919050565b600060208201905081810360008301526108998161085d565b9050919050565b7f4d696c6573746f6e65733a20616c72656164792072656c656173656400000000600082015250565b60006108d6601c836107b7565b91506108e1826108a0565b602082019050919050565b60006020820190508181036000830152610905816108c9565b9050919050565b7f4e487b7100000000000000000000000000000000000000000000000000000000600052601160045260246000fd5b6000610946826105e3565b9150610951836105e3565b92508282019050808211156109695761096861090c565b5b9291505056fea26469706673582212204911f47d35cccdc1cde026a57601c094527ff91f6b7d64b77fcf71a2698ba9fb64736f6c63430008140033",
  "linkReferences": {},
  "deployedLinkReferences": {}
}