{
  "_format": "hh-sol-artifact-1",
  "contractName": "Refunds",
  "sourceName": "contracts/Refunds.sol",
  "abi": [
    {
      "inputs": [
        {
          "internalType": "address",
          "name": "_escrow",
          "type": "address"
        }
      ],
      "stateMutability": "nonpayable",
      "type": "constructor"
    },
    {
      "inputs": [
        {
          "internalType": "uint256",
          "name": "projectId",
          "type": "uint256"
        },
        {
          "internalType": "address",
          "name": "backer",
          "type": "address"
        }
      ],
      "name": "consumeRefund",
      "outputs": [
        {
          "internalType": "uint256",
          "name": "amount",
          "type": "uint256"
        }
      ],
      "stateMutability": "nonpayable",
      "type": "function"
    },
    {
      "inputs": [],
      "name": "escrow",
      "outputs": [
        {
          "internalType": "address",
          "name": "",
          "type": "address"
        }
      ],
      "stateMutability": "view",
      "type": "function"
    },
    {
      "inputs": [
        {
          "internalType": "uint256",
          "name": "projectId",
          "type": "uint256"
        },
        {
          "internalType": "address",
          "name": "backer",
          "type": "address"
        },
        {
          "internalType": "uint256",
          "name": "amount",
          "type": "uint256"
        }
      ],
      "name": "increaseRefund",
      "outputs": [],
      "stateMutability": "nonpayable",
      "type": "function"
    },
    {
      "inputs": [
        {
          "internalType": "uint256",
          "name": "",
          "type": "uint256"
        },
        {
          "internalType": "address",
          "name": "",
          "type": "address"
        }
      ],
      "name": "refundable",
      "outputs": [
        {
          "internalType": "uint256",
          "name": "",
          "type": "uint256"
        }
      ],
      "stateMutability": "view",
      "type": "function"
    },
    {
      "inputs": [
        {
          "internalType": "address",
          "name": "_escrow",
          "type": "address"
        }
      ],
      "name": "setEscrow",
      "outputs": [],
      "stateMutability": "nonpayable",
      "type": "function"
    }
  ],
  "bytecode": "0x608060405234801561001057600080fd5b506040516107b23803806107b2833981810160405281019061003291906100db565b806000806101000a81548173ffffffffffffffffffffffffffffffffffffffff021916908373ffffffffffffffffffffffffffffffffffffffff16021790555050610108565b600080fd5b600073ffffffffffffffffffffffffffffffffffffffff82169050919050565b60006100a88261007d565b9050919050565b6100b88161009d565b81146100c357600080fd5b50565b6000815190506100d5816100af565b92915050565b6000602082840312156100f1576100f0610078565b5b60006100ff848285016100c6565b91505092915050565b61069b806101176000396000f3fe608060405234801561001057600080fd5b50600436106100575760003560e01c8063520025d01461005c5780637bf41254146100785780638db1faf7146100a8578063c10c3546146100d8578063e2fdcc17146100f4575b600080fd5b61007660048036038101906100719190610471565b610112565b005b610092600480360381019061008d91906104c4565b61020c565b60405161009f9190610513565b60405180910390f35b6100c260048036038101906100bd91906104c4565b610231565b6040516100cf9190610513565b60405180910390f35b6100f260048036038101906100ed919061052e565b610371565b005b6100fc6103b4565b604051610109919061056a565b60405180910390f35b60008054906101000a900473ffffffffffffffffffffffffffffffffffffffff1673ffffffffffffffffffffffffffffffffffffffff163373ffffffffffffffffffffffffffffffffffffffff16146101a0576040517f08c379a0000000000000000000000000000000000000000000000000000000008152600401610197906105e2565b60405180910390fd5b806001600085815260200190815260200160002060008473ffffffffffffffffffffffffffffffffffffffff1673ffffffffffffffffffffffffffffffffffffffff16815260200190815260200160002060008282546102009190610631565b92505081905550505050565b6001602052816000526040600020602052806000526040600020600091509150505481565b60008060009054906101000a900473ffffffffffffffffffffffffffffffffffffffff1673ffffffffffffffffffffffffffffffffffffffff163373ffffffffffffffffffffffffffffffffffffffff16146102c2576040517f08c379a00000000000000000000000000000000000000000000000000000000081526004016102b9906105e2565b60405180910390fd5b6001600084815260200190815260200160002060008373ffffffffffffffffffffffffffffffffffffffff1673ffffffffffffffffffffffffffffffffffffffff16815260200190815260200160002054905060006001600085815260200190815260200160002060008473ffffffffffffffffffffffffffffffffffffffff1673ffffffffffffffffffffffffffffffffffffffff1681526020019081526020016000208190555092915050565b806000806101000a81548173ffffffffffffffffffffffffffffffffffffffff021916908373ffffffffffffffffffffffffffffffffffffffff16021790555050565b60008054906101000a900473ffffffffffffffffffffffffffffffffffffffff1681565b600080fd5b6000819050919050565b6103f0816103dd565b81146103fb57600080fd5b50565b60008135905061040d816103e7565b92915050565b600073ffffffffffffffffffffffffffffffffffffffff82169050919050565b600061043e82610413565b9050919050565b61044e81610433565b811461045957600080fd5b50565b60008135905061046b81610445565b92915050565b60008060006060848603121561048a576104896103d8565b5b6000610498868287016103fe565b93505060206104a98682870161045c565b92505060406104ba868287016103fe565b9150509250925092565b600080604083850312156104db576104da6103d8565b5b60006104e9858286016103fe565b92505060206104fa8582860161045c565b9150509250929050565b61050d816103dd565b82525050565b60006020820190506105286000830184610504565b92915050565b600060208284031215610544576105436103d8565b5b60006105528482850161045c565b91505092915050565b61056481610433565b82525050565b600060208201905061057f600083018461055b565b92915050565b600082825260208201905092915050565b7f526566756e64733a206f6e6c7920657363726f77000000000000000000000000600082015250565b60006105cc601483610585565b91506105d782610596565b602082019050919050565b600060208201905081810360008301526105fb816105bf565b9050919050565b7f4e487b7100000000000000000000000000000000000000000000000000000000600052601160045260246000fd5b600061063c826103dd565b9150610647836103dd565b925082820190508082111561065f5761065e610602565b5b9291505056fea26469706673582212204a6a3930367e1d842b8ddce3580537be23983c81736acebfa350144682770bfe64736f6c63430008140033",
  "linkReferences": {},
  "deployedLinkReferences": {}
}