{
  "_format": "hh-sol-artifact-1",
  "contractName": "ProjectEscrow",
  "sourceName": "contracts/ProjectEscrow.sol",
  "abi": [
    {
      "inputs": [
        {
          "internalType": "address",
          "name": "_milestones",
          "type": "address"
        },
        {
          "internalType": "address",
          "name": "_governance",
          "type": "address"
        },
        {
          "internalType": "address",
          "name": "_refunds",
          "type": "address"
        },
        {
          "internalType": "address",
          "name": "_treasury",
          "type": "address"
        }
      ],
      "stateMutability": "nonpayable",
      "type": "constructor"
    },
    {
      "anonymous": false,
      "inputs": [
        {
          "indexed": true,
          "internalType": "uint256",
          "name": "projectId",
          "type": "uint256"
        },
        {
          "indexed": true,
          "internalType": "uint256",
          "name": "milestoneId",
          "type": "uint256"
        },
        {
          "indexed": false,
          "internalType": "uint256",
          "name": "amount",
          "type": "uint256"
        },
        {
          "indexed": false,
          "internalType": "address",
          "name": "to",
          "type": "address"
        }
      ],
      "name": "FundsReleased",
      "type": "event"
    },
    {
      "anonymous": false,
      "inputs": [
        {
          "indexed": true,
          "internalType": "uint256",
          "name": "projectId",
          "type": "uint256"
        },
        {
          "indexed": true,
          "internalType": "uint256",
          "name": "milestoneId",
          "type": "uint256"
        },
        {
          "indexed": false,
          "internalType": "string",
          "name": "title",
          "type": "string"
        },
        {
          "indexed": false,
          "internalType": "uint256",
          "name": "amount",
          "type": "uint256"
        }
      ],
      "name": "MilestoneSubmitted",
      "type": "event"
    },
    {
      "anonymous": false,
      "inputs": [
        {
          "indexed": true,
          "internalType": "uint256",
          "name": "projectId",
          "type": "uint256"
        },
        {
          "indexed": true,
          "internalType": "address",
          "name": "backer",
          "type": "address"
        },
        {
          "indexed": false,
          "internalType": "uint256",
          "name": "amount",
          "type": "uint256"
        }
      ],
      "name": "PledgeMade",
      "type": "event"
    },
    {
      "anonymous": false,
      "inputs": [
        {
          "indexed": true,
          "internalType": "uint256",
          "name": "projectId",
          "type": "uint256"
        },
        {
          "indexed": true,
          "internalType": "address",
          "name": "creator",
          "type": "address"
        },
        {
          "indexed": false,
          "internalType": "uint256",
          "name": "fundingGoal",
          "type": "uint256"
        },
        {
          "indexed": false,
          "internalType": "uint256",
          "name": "deadline",
          "type": "uint256"
        }
      ],
      "name": "ProjectCreated",
      "type": "event"
    },
    {
      "anonymous": false,
      "inputs": [
        {
          "indexed": true,
          "internalType": "uint256",
          "name": "projectId",
          "type": "uint256"
        },
        {
          "indexed": true,
          "internalType": "address",
          "name": "backer",
          "type": "address"
        },
        {
          "indexed": false,
          "internalType": "uint256",
          "name": "amount",
          "type": "uint256"
        }
      ],
      "name": "RefundIssued",
      "type": "event"
    },
    {
      "anonymous": false,
      "inputs": [
        {
          "indexed": true,
          "internalType": "uint256",
          "name": "projectId",
          "type": "uint256"
        },
        {
          "indexed": true,
          "internalType": "uint256",
          "name": "milestoneId",
          "type": "uint256"
        },
        {
          "indexed": true,
          "internalType": "address",
          "name": "backer",
          "type": "address"
        },
        {
          "indexed": false,
          "internalType": "bool",
          "name": "approve",
          "type": "bool"
        },
        {
          "indexed": false,
          "internalType": "uint256",
          "name": "weight",
          "type": "uint256"
        }
      ],
      "name": "VoteCast",
      "type": "event"
    },
    {
      "inputs": [
        {
          "internalType": "uint256",
          "name": "fundingGoalWei",
          "type": "uint256"
        },
        {
          "internalType": "uint256",
          "name": "deadlineTimestamp",
          "type": "uint256"
        }
      ],
      "name": "createProject",
      "outputs": [
        {
          "internalType": "uint256",
          "name": "",
          "type": "uint256"
        }
      ],
      "stateMutability": "nonpayable",
      "type": "function"
    },
    {
      "inputs": [],
      "name": "governanceContract",
      "outputs": [
        {
          "internalType": "address",
          "name": "",
          "type": "address"
        }
      ],
      "stateMutability": "view",
      "type": "function"
    },
    {
      "inputs": [],
      "name": "milestonesContract",
      "outputs": [
        {
          "internalType": "address",
          "name": "",
          "type": "address"
        }
      ],
      "stateMutability": "view",
      "type": "function"
    },
    {
      "inputs": [],
      "name": "nextProjectId",
      "outputs": [
        {
          "internalType": "uint256",
          "name": "",
          "type": "uint256"
        }
      ],
      "stateMutability": "view",
      "type": "function"
    },
    {
      "inputs": [],
      "name": "owner",
      "outputs": [
        {
          "internalType": "address",
          "name": "",
          "type": "address"
        }
      ],
      "stateMutability": "view",
      "type": "function"
    },
    {
      "inputs": [],
      "name": "platformFeeBps",
      "outputs": [
        {
          "internalType": "uint256",
          "name": "",
          "type": "uint256"
        }
      ],
      "stateMutability": "view",
      "type": "function"
    },
    {
      "inputs": [
        {
          "internalType": "uint256",
          "name": "projectId",
          "type": "uint256"
        }
      ],
      "name": "pledge",
      "outputs": [],
      "stateMutability": "payable",
      "type": "function"
    },
    {
      "inputs": [
        {
          "internalType": "uint256",
          "name": "",
          "type": "uint256"
        },
        {
          "internalType": "address",
          "name": "",
          "type": "address"
        }
      ],
      "name": "pledges",
      "outputs": [
        {
          "internalType": "uint256",
          "name": "",
          "type": "uint256"
        }
      ],
      "stateMutability": "view",
      "type": "function"
    },
    {
      "inputs": [
        {
          "internalType": "uint256",
          "name": "",
          "type": "uint256"
        }
      ],
      "name": "projects",
      "outputs": [
        {
          "internalType": "address",
          "name": "creator",
          "type": "address"
        },
        {
          "internalType": "uint256",
          "name": "fundingGoal",
          "type": "uint256"
        },
        {
          "internalType": "uint256",
          "name": "currentFunding",
          "type": "uint256"
        },
        {
          "internalType": "uint256",
          "name": "deadline",
          "type": "uint256"
        },
        {
          "internalType": "enum ProjectEscrow.ProjectStatus",
          "name": "status",
          "type": "uint8"
        }
      ],
      "stateMutability": "view",
      "type": "function"
    },
    {
      "inputs": [],
      "name": "refundsContract",
      "outputs": [
        {
          "internalType": "address",
          "name": "",
          "type": "address"
        }
      ],
      "stateMutability": "view",
      "type": "function"
    },
    {
      "inputs": [
        {
          "internalType": "uint256",
          "name": "projectId",
          "type": "uint256"
        },
        {
          "internalType": "uint256",
          "name": "milestoneId",
          "type": "uint256"
        }
      ],
      "name": "releaseFunds",
      "outputs": [],
      "stateMutability": "nonpayable",
      "type": "function"
    },
    {
      "inputs": [
        {
          "internalType": "uint256",
          "name": "projectId",
          "type": "uint256"
        }
      ],
      "name": "requestRefund",
      "outputs": [],
      "stateMutability": "nonpayable",
      "type": "function"
    },
    {
      "inputs": [
        {
          "internalType": "uint256",
          "name": "newFeeBps",
          "type": "uint256"
        }
      ],
      "name": "setPlatformFeeBps",
      "outputs": [],
      "stateMutability": "nonpayable",
      "type": "function"
    },
    {
      "inputs": [
        {
          "internalType": "uint256",
          "name": "projectId",
          "type": "uint256"
        },
        {
          "internalType": "string",
          "name": "title",
          "type": "string"
        },
        {
          "internalType": "uint256",
          "name": "amountWei",
          "type": "uint256"
        }
      ],
      "name": "submitMilestone",
      "outputs": [],
      "stateMutability": "nonpayable",
      "type": "function"
    },
    {
      "inputs": [],
      "name": "treasuryContract",
      "outputs": [
        {
          "internalType": "address",
          "name": "",
          "type": "address"
        }
      ],
      "stateMutability": "view",
      "type": "function"
    },
    {
      "inputs": [
        {
          "internalType": "uint256",
          "name": "projectId",
          "type": "uint256"
        },
        {
          "internalType": "uint256",
          "name": "milestoneId",
          "type": "uint256"
        },
        {
          "internalType": "bool",
          "name": "approve",
          "type": "bool"
        }
      ],
      "name": "voteOnMilestone",
      "outputs": [],
      "stateMutability": "nonpayable",
      "type": "function"
    }
  ],
  "bytecode": "0x60806040523480156200001157600080fd5b5060405162002ba538038062002ba58339818101604052810190620000379190620001ef565b336000806101000a81548173ffffffffffffffffffffffffffffffffffffffff021916908373ffffffffffffffffffffffffffffffffffffffff16021790555083600160006101000a81548173ffffffffffffffffffffffffffffffffffffffff021916908373ffffffffffffffffffffffffffffffffffffffff16021790555082600260006101000a81548173ffffffffffffffffffffffffffffffffffffffff021916908373ffffffffffffffffffffffffffffffffffffffff16021790555081600360006101000a81548173ffffffffffffffffffffffffffffffffffffffff021916908373ffffffffffffffffffffffffffffffffffffffff16021790555080600460006101000a81548173ffffffffffffffffffffffffffffffffffffffff021916908373ffffffffffffffffffffffffffffffffffffffff1602179055505050505062000261565b600080fd5b600073ffffffffffffffffffffffffffffffffffffffff82169050919050565b6000620001b7826200018a565b9050919050565b620001c981620001aa565b8114620001d557600080fd5b50565b600081519050620001e981620001be565b92915050565b600080600080608085870312156200020c576200020b62000185565b5b60006200021c87828801620001d8565b94505060206200022f87828801620001d8565b93505060406200024287828801620001d8565b92505060606200025587828801620001d8565b91505092959194509250565b61293480620002716000396000f3fe6080604052600436106100f35760003560e01c80638d4435871161008a578063b172b22211610059578063b172b22214610321578063c580c9421461034c578063df7843ae14610375578063e935b7b11461039e576100f3565b80638d443587146102655780638da5cb5b146102905780638e97f524146102bb578063a4b2409e146102f8576100f3565b806318da0011116100c657806318da0011146101ca57806322dcd13e146101f5578063233eecdb146102205780637326c9c014610249576100f3565b806302da667b146100f85780630e783d6d14610135578063107046bd1461015e57806310d49b061461019f575b600080fd5b34801561010457600080fd5b5061011f600480360381019061011a9190611840565b6103c9565b60405161012c919061188f565b60405180910390f35b34801561014157600080fd5b5061015c600480360381019061015791906118e2565b6105c1565b005b34801561016a57600080fd5b5061018560048036038101906101809190611935565b610796565b604051610196959493929190611a1a565b60405180910390f35b3480156101ab57600080fd5b506101b46107f9565b6040516101c19190611a6d565b60405180910390f35b3480156101d657600080fd5b506101df61081f565b6040516101ec9190611a6d565b60405180910390f35b34801561020157600080fd5b5061020a610845565b604051610217919061188f565b60405180910390f35b34801561022c57600080fd5b5061024760048036038101906102429190611aed565b61084b565b005b610263600480360381019061025e9190611935565b610a1c565b005b34801561027157600080fd5b5061027a610c61565b6040516102879190611a6d565b60405180910390f35b34801561029c57600080fd5b506102a5610c87565b6040516102b29190611a6d565b60405180910390f35b3480156102c757600080fd5b506102e260048036038101906102dd9190611b8d565b610cab565b6040516102ef919061188f565b60405180910390f35b34801561030457600080fd5b5061031f600480360381019061031a9190611935565b610cd0565b005b34801561032d57600080fd5b506103366110f9565b6040516103439190611a6d565b60405180910390f35b34801561035857600080fd5b50610373600480360381019061036e9190611935565b61111f565b005b34801561038157600080fd5b5061039c60048036038101906103979190611840565b6111fc565b005b3480156103aa57600080fd5b506103b36117fa565b6040516103c0919061188f565b60405180910390f35b600080831161040d576040517f08c379a000000000000000000000000000000000000000000000000000000000815260040161040490611c2a565b60405180910390fd5b42821161044f576040517f08c379a000000000000000000000000000000000000000000000000000000000815260040161044690611c96565b60405180910390fd5b60006005600081548092919061046490611ce5565b9190505590506040518060a001604052803373ffffffffffffffffffffffffffffffffffffffff16815260200185815260200160008152602001848152602001600060028111156104b8576104b76119a3565b5b8152506007600083815260200190815260200160002060008201518160000160006101000a81548173ffffffffffffffffffffffffffffffffffffffff021916908373ffffffffffffffffffffffffffffffffffffffff16021790555060208201518160010155604082015181600201556060820151816003015560808201518160040160006101000a81548160ff0219169083600281111561055e5761055d6119a3565b5b02179055509050503373ffffffffffffffffffffffffffffffffffffffff16817fb5d890eb2df709d2f732ed81f328b444e49c1618ed8d64c53c0a040ec4040e1e86866040516105af929190611d2d565b60405180910390a38091505092915050565b60006008600085815260200190815260200160002060003373ffffffffffffffffffffffffffffffffffffffff1673ffffffffffffffffffffffffffffffffffffffff1681526020019081526020016000205411610654576040517f08c379a000000000000000000000000000000000000000000000000000000000815260040161064b90611da2565b60405180910390fd5b60006008600085815260200190815260200160002060003373ffffffffffffffffffffffffffffffffffffffff1673ffffffffffffffffffffffffffffffffffffffff168152602001908152602001600020549050600260009054906101000a900473ffffffffffffffffffffffffffffffffffffffff1673ffffffffffffffffffffffffffffffffffffffff166312791d8f85853386866040518663ffffffff1660e01b815260040161070c959493929190611dd1565b600060405180830381600087803b15801561072657600080fd5b505af115801561073a573d6000803e3d6000fd5b505050503373ffffffffffffffffffffffffffffffffffffffff1683857fd72a296265de05f7f425107ca376651b68831fa700c5ed272487924e44532dc58585604051610788929190611e24565b60405180910390a450505050565b60076020528060005260406000206000915090508060000160009054906101000a900473ffffffffffffffffffffffffffffffffffffffff16908060010154908060020154908060030154908060040160009054906101000a900460ff16905085565b600360009054906101000a900473ffffffffffffffffffffffffffffffffffffffff1681565b600460009054906101000a900473ffffffffffffffffffffffffffffffffffffffff1681565b60065481565b836007600082815260200190815260200160002060000160009054906101000a900473ffffffffffffffffffffffffffffffffffffffff1673ffffffffffffffffffffffffffffffffffffffff163373ffffffffffffffffffffffffffffffffffffffff16146108f0576040517f08c379a00000000000000000000000000000000000000000000000000000000081526004016108e790611e99565b60405180910390fd5b60008211610933576040517f08c379a000000000000000000000000000000000000000000000000000000000815260040161092a90611f05565b60405180910390fd5b6000600160009054906101000a900473ffffffffffffffffffffffffffffffffffffffff1673ffffffffffffffffffffffffffffffffffffffff1663d3e4bd9587856040518363ffffffff1660e01b8152600401610992929190611d2d565b6020604051808303816000875af11580156109b1573d6000803e3d6000fd5b505050506040513d601f19601f820116820180604052508101906109d59190611f3a565b905080867f7f4d80269cdce8cfe4d74c1ac8ede5d2940be71300d92461a70468bfa0888cac878787604051610a0c93929190611fb4565b60405180910390a3505050505050565b6000600760008381526020019081526020016000209050600073ffffffffffffffffffffffffffffffffffffffff168160000160009054906101000a900473ffffffffffffffffffffffffffffffffffffffff1673ffffffffffffffffffffffffffffffffffffffff1603610ac6576040517f08c379a0000000000000000000000000000000000000000000000000000000008152600401610abd90612032565b60405180910390fd5b80600301544210610b0c576040517f08c379a0000000000000000000000000000000000000000000000000000000008152600401610b039061209e565b60405180910390fd5b60003411610b4f576040517f08c379a0000000000000000000000000000000000000000000000000000000008152600401610b469061210a565b60405180910390fd5b34816002016000828254610b63919061212a565b92505081905550346008600084815260200190815260200160002060003373ffffffffffffffffffffffffffffffffffffffff1673ffffffffffffffffffffffffffffffffffffffff1681526020019081526020016000206000828254610bca919061212a565b925050819055503373ffffffffffffffffffffffffffffffffffffffff16827f32ce8e6b57cb1303806eaf9b3bf3609699c7a1a3231079bd7ece621d13c6c4bf34604051610c18919061188f565b60405180910390a38060010154816002015410610c5d5760018160040160006101000a81548160ff02191690836002811115610c5757610c566119a3565b5b02179055505b5050565b600160009054906101000a900473ffffffffffffffffffffffffffffffffffffffff1681565b60008054906101000a900473ffffffffffffffffffffffffffffffffffffffff1681565b6008602052816000526040600020602052806000526040600020600091509150505481565b600060076000838152602001908152602001600020905080600301544211610d2d576040517f08c379a0000000000000000000000000000000000000000000000000000000008152600401610d24906121aa565b60405180910390fd5b8060010154816002015410610d77576040517f08c379a0000000000000000000000000000000000000000000000000000000008152600401610d6e90612216565b60405180910390fd5b60006008600084815260200190815260200160002060003373ffffffffffffffffffffffffffffffffffffffff1673ffffffffffffffffffffffffffffffffffffffff16815260200190815260200160002054905060008111610e0f576040517f08c379a0000000000000000000000000000000000000000000000000000000008152600401610e0690612282565b60405180910390fd5b60006008600085815260200190815260200160002060003373ffffffffffffffffffffffffffffffffffffffff1673ffffffffffffffffffffffffffffffffffffffff1681526020019081526020016000208190555080826002016000828254610e7991906122a2565b92505081905550600360009054906101000a900473ffffffffffffffffffffffffffffffffffffffff1673ffffffffffffffffffffffffffffffffffffffff1663520025d08433846040518463ffffffff1660e01b8152600401610edf939291906122d6565b600060405180830381600087803b158015610ef957600080fd5b505af1158015610f0d573d6000803e3d6000fd5b505050506000600360009054906101000a900473ffffffffffffffffffffffffffffffffffffffff1673ffffffffffffffffffffffffffffffffffffffff16638db1faf785336040518363ffffffff1660e01b8152600401610f7092919061230d565b6020604051808303816000875af1158015610f8f573d6000803e3d6000fd5b505050506040513d601f19601f82011682018060405250810190610fb39190611f3a565b9050818114610ff7576040517f08c379a0000000000000000000000000000000000000000000000000000000008152600401610fee90612382565b60405180910390fd5b60003373ffffffffffffffffffffffffffffffffffffffff168260405161101d906123d3565b60006040518083038185875af1925050503d806000811461105a576040519150601f19603f3d011682016040523d82523d6000602084013e61105f565b606091505b50509050806110a3576040517f08c379a000000000000000000000000000000000000000000000000000000000815260040161109a90612434565b60405180910390fd5b3373ffffffffffffffffffffffffffffffffffffffff16857f7a482fdeb6bc9a1376f597068a214a7a39472bb2eff1b8cad21ba04f49ddca1b846040516110ea919061188f565b60405180910390a35050505050565b600260009054906101000a900473ffffffffffffffffffffffffffffffffffffffff1681565b60008054906101000a900473ffffffffffffffffffffffffffffffffffffffff1673ffffffffffffffffffffffffffffffffffffffff163373ffffffffffffffffffffffffffffffffffffffff16146111ad576040517f08c379a00000000000000000000000000000000000000000000000000000000081526004016111a4906124a0565b60405180910390fd5b6103e88111156111f2576040517f08c379a00000000000000000000000000000000000000000000000000000000081526004016111e99061250c565b60405180910390fd5b8060068190555050565b816007600082815260200190815260200160002060000160009054906101000a900473ffffffffffffffffffffffffffffffffffffffff1673ffffffffffffffffffffffffffffffffffffffff163373ffffffffffffffffffffffffffffffffffffffff16146112a1576040517f08c379a000000000000000000000000000000000000000000000000000000000815260040161129890611e99565b60405180910390fd5b60006007600085815260200190815260200160002090506000806000600160009054906101000a900473ffffffffffffffffffffffffffffffffffffffff1673ffffffffffffffffffffffffffffffffffffffff16638ed9895c88886040518363ffffffff1660e01b815260040161131a929190611d2d565b606060405180830381865afa158015611337573d6000803e3d6000fd5b505050506040513d601f19601f8201168201806040525081019061135b9190612541565b925092509250816113a1576040517f08c379a0000000000000000000000000000000000000000000000000000000008152600401611398906125e0565b60405180910390fd5b80156113e2576040517f08c379a00000000000000000000000000000000000000000000000000000000081526004016113d99061264c565b60405180910390fd5b82471015611425576040517f08c379a000000000000000000000000000000000000000000000000000000000815260040161141c906126b8565b60405180910390fd5b600080600260009054906101000a900473ffffffffffffffffffffffffffffffffffffffff1673ffffffffffffffffffffffffffffffffffffffff1663cdae1fba8a8a6040518363ffffffff1660e01b8152600401611485929190611d2d565b6040805180830381865afa1580156114a1573d6000803e3d6000fd5b505050506040513d601f19601f820116820180604052508101906114c591906126d8565b9150915080821161150b576040517f08c379a000000000000000000000000000000000000000000000000000000000815260040161150290612764565b60405180910390fd5b600160009054906101000a900473ffffffffffffffffffffffffffffffffffffffff1673ffffffffffffffffffffffffffffffffffffffff16630d75a82f8a8a6040518363ffffffff1660e01b8152600401611568929190611d2d565b600060405180830381600087803b15801561158257600080fd5b505af1158015611596573d6000803e3d6000fd5b505050506000612710600654876115ad9190612784565b6115b791906127f5565b9050600081876115c791906122a2565b9050868860020160008282546115dd91906122a2565b9250508190555060008211156116bd576000600460009054906101000a900473ffffffffffffffffffffffffffffffffffffffff1673ffffffffffffffffffffffffffffffffffffffff1683604051611635906123d3565b60006040518083038185875af1925050503d8060008114611672576040519150601f19603f3d011682016040523d82523d6000602084013e611677565b606091505b50509050806116bb576040517f08c379a00000000000000000000000000000000000000000000000000000000081526004016116b290612872565b60405180910390fd5b505b60008860000160009054906101000a900473ffffffffffffffffffffffffffffffffffffffff1673ffffffffffffffffffffffffffffffffffffffff1682604051611707906123d3565b60006040518083038185875af1925050503d8060008114611744576040519150601f19603f3d011682016040523d82523d6000602084013e611749565b606091505b505090508061178d576040517f08c379a0000000000000000000000000000000000000000000000000000000008152600401611784906128de565b60405180910390fd5b8a8c7f7c23647db3cb03f6f0d92ad3dcde207e9a1640d0b15a34689bd0ea8c8400f8d58a8c60000160009054906101000a900473ffffffffffffffffffffffffffffffffffffffff166040516117e492919061230d565b60405180910390a3505050505050505050505050565b60055481565b600080fd5b600080fd5b6000819050919050565b61181d8161180a565b811461182857600080fd5b50565b60008135905061183a81611814565b92915050565b6000806040838503121561185757611856611800565b5b60006118658582860161182b565b92505060206118768582860161182b565b9150509250929050565b6118898161180a565b82525050565b60006020820190506118a46000830184611880565b92915050565b60008115159050919050565b6118bf816118aa565b81146118ca57600080fd5b50565b6000813590506118dc816118b6565b92915050565b6000806000606084860312156118fb576118fa611800565b5b60006119098682870161182b565b935050602061191a8682870161182b565b925050604061192b868287016118cd565b9150509250925092565b60006020828403121561194b5761194a611800565b5b60006119598482850161182b565b91505092915050565b600073ffffffffffffffffffffffffffffffffffffffff82169050919050565b600061198d82611962565b9050919050565b61199d81611982565b82525050565b7f4e487b7100000000000000000000000000000000000000000000000000000000600052602160045260246000fd5b600381106119e3576119e26119a3565b5b50565b60008190506119f4826119d2565b919050565b6000611a04826119e6565b9050919050565b611a14816119f9565b82525050565b600060a082019050611a2f6000830188611994565b611a3c6020830187611880565b611a496040830186611880565b611a566060830185611880565b611a636080830184611a0b565b9695505050505050565b6000602082019050611a826000830184611994565b92915050565b600080fd5b600080fd5b600080fd5b60008083601f840112611aad57611aac611a88565b5b8235905067ffffffffffffffff811115611aca57611ac9611a8d565b5b602083019150836001820283011115611ae657611ae5611a92565b5b9250929050565b60008060008060608587031215611b0757611b06611800565b5b6000611b158782880161182b565b945050602085013567ffffffffffffffff811115611b3657611b35611805565b5b611b4287828801611a97565b93509350506040611b558782880161182b565b91505092959194509250565b611b6a81611982565b8114611b7557600080fd5b50565b600081359050611b8781611b61565b92915050565b60008060408385031215611ba457611ba3611800565b5b6000611bb28582860161182b565b9250506020611bc385828601611b78565b9150509250929050565b600082825260208201905092915050565b7f476f616c206d757374206265203e203000000000000000000000000000000000600082015250565b6000611c14601083611bcd565b9150611c1f82611bde565b602082019050919050565b60006020820190508181036000830152611c4381611c07565b9050919050565b7f446561646c696e65206d75737420626520667574757265000000000000000000600082015250565b6000611c80601783611bcd565b9150611c8b82611c4a565b602082019050919050565b60006020820190508181036000830152611caf81611c73565b9050919050565b7f4e487b7100000000000000000000000000000000000000000000000000000000600052601160045260246000fd5b6000611cf08261180a565b91507fffffffffffffffffffffffffffffffffffffffffffffffffffffffffffffffff8203611d2257611d21611cb6565b5b600182019050919050565b6000604082019050611d426000830185611880565b611d4f6020830184611880565b9392505050565b7f4e6f74206261636b657200000000000000000000000000000000000000000000600082015250565b6000611d8c600a83611bcd565b9150611d9782611d56565b602082019050919050565b60006020820190508181036000830152611dbb81611d7f565b9050919050565b611dcb816118aa565b82525050565b600060a082019050611de66000830188611880565b611df36020830187611880565b611e006040830186611994565b611e0d6060830185611dc2565b611e1a6080830184611880565b9695505050505050565b6000604082019050611e396000830185611dc2565b611e466020830184611880565b9392505050565b7f4e6f742063726561746f72000000000000000000000000000000000000000000600082015250565b6000611e83600b83611bcd565b9150611e8e82611e4d565b602082019050919050565b60006020820190508181036000830152611eb281611e76565b9050919050565b7f416d6f756e74203e203000000000000000000000000000000000000000000000600082015250565b6000611eef600a83611bcd565b9150611efa82611eb9565b602082019050919050565b60006020820190508181036000830152611f1e81611ee2565b9050919050565b600081519050611f3481611814565b92915050565b600060208284031215611f5057611f4f611800565b5b6000611f5e84828501611f25565b91505092915050565b82818337600083830152505050565b6000601f19601f8301169050919050565b6000611f938385611bcd565b9350611fa0838584611f67565b611fa983611f76565b840190509392505050565b60006040820190508181036000830152611fcf818587611f87565b9050611fde6020830184611880565b949350505050565b7f50726f6a656374206e6f7420666f756e64000000000000000000000000000000600082015250565b600061201c601183611bcd565b915061202782611fe6565b602082019050919050565b6000602082019050818103600083015261204b8161200f565b9050919050565b7f46756e64696e6720656e64656400000000000000000000000000000000000000600082015250565b6000612088600d83611bcd565b915061209382612052565b602082019050919050565b600060208201905081810360008301526120b78161207b565b9050919050565b7f53656e6420455448000000000000000000000000000000000000000000000000600082015250565b60006120f4600883611bcd565b91506120ff826120be565b602082019050919050565b60006020820190508181036000830152612123816120e7565b9050919050565b60006121358261180a565b91506121408361180a565b925082820190508082111561215857612157611cb6565b5b92915050565b7f4e6f7420656e6465640000000000000000000000000000000000000000000000600082015250565b6000612194600983611bcd565b915061219f8261215e565b602082019050919050565b600060208201905081810360008301526121c381612187565b9050919050565b7f476f616c206d6574000000000000000000000000000000000000000000000000600082015250565b6000612200600883611bcd565b915061220b826121ca565b602082019050919050565b6000602082019050818103600083015261222f816121f3565b9050919050565b7f4e6f7468696e6720706c65646765640000000000000000000000000000000000600082015250565b600061226c600f83611bcd565b915061227782612236565b602082019050919050565b6000602082019050818103600083015261229b8161225f565b9050919050565b60006122ad8261180a565b91506122b88361180a565b92508282039050818111156122d0576122cf611cb6565b5b92915050565b60006060820190506122eb6000830186611880565b6122f86020830185611994565b6123056040830184611880565b949350505050565b60006040820190506123226000830185611880565b61232f6020830184611994565b9392505050565b7f526566756e64733a206d69736d61746368000000000000000000000000000000600082015250565b600061236c601183611bcd565b915061237782612336565b602082019050919050565b6000602082019050818103600083015261239b8161235f565b9050919050565b600081905092915050565b50565b60006123bd6000836123a2565b91506123c8826123ad565b600082019050919050565b60006123de826123b0565b9150819050919050565b7f526566756e64206661696c656400000000000000000000000000000000000000600082015250565b600061241e600d83611bcd565b9150612429826123e8565b602082019050919050565b6000602082019050818103600083015261244d81612411565b9050919050565b7f4e6f74206f776e65720000000000000000000000000000000000000000000000600082015250565b600061248a600983611bcd565b915061249582612454565b602082019050919050565b600060208201905081810360008301526124b98161247d565b9050919050565b7f46656520746f6f20686967680000000000000000000000000000000000000000600082015250565b60006124f6600c83611bcd565b9150612501826124c0565b602082019050919050565b60006020820190508181036000830152612525816124e9565b9050919050565b60008151905061253b816118b6565b92915050565b60008060006060848603121561255a57612559611800565b5b600061256886828701611f25565b93505060206125798682870161252c565b925050604061258a8682870161252c565b9150509250925092565b7f4e6f206d696c6573746f6e650000000000000000000000000000000000000000600082015250565b60006125ca600c83611bcd565b91506125d582612594565b602082019050919050565b600060208201905081810360008301526125f9816125bd565b9050919050565b7f416c72656164792072656c656173656400000000000000000000000000000000600082015250565b6000612636601083611bcd565b915061264182612600565b602082019050919050565b6000602082019050818103600083015261266581612629565b9050919050565b7f4e6f7420656e6f75676820657363726f77000000000000000000000000000000600082015250565b60006126a2601183611bcd565b91506126ad8261266c565b602082019050919050565b600060208201905081810360008301526126d181612695565b9050919050565b600080604083850312156126ef576126ee611800565b5b60006126fd85828601611f25565b925050602061270e85828601611f25565b9150509250929050565b7f4e6f7420617070726f7665640000000000000000000000000000000000000000600082015250565b600061274e600c83611bcd565b915061275982612718565b602082019050919050565b6000602082019050818103600083015261277d81612741565b9050919050565b600061278f8261180a565b915061279a8361180a565b92508282026127a88161180a565b915082820484148315176127bf576127be611cb6565b5b5092915050565b7f4e487b7100000000000000000000000000000000000000000000000000000000600052601260045260246000fd5b60006128008261180a565b915061280b8361180a565b92508261281b5761281a6127c6565b5b828204905092915050565b7f466565207472616e73666572206661696c656400000000000000000000000000600082015250565b600061285c601383611bcd565b915061286782612826565b602082019050919050565b6000602082019050818103600083015261288b8161284f565b9050919050565b7f5472616e73666572206661696c65640000000000000000000000000000000000600082015250565b60006128c8600f83611bcd565b91506128d382612892565b602082019050919050565b600060208201905081810360008301526128f7816128bb565b905091905056fea2646970667358221220bf1dd24129166b479d9279e29fdce06848af66c3265327454397c134ddb7086864736f6c63430008140033",
  "linkReferences": {},
  "deployedLinkReferences": {}
}