{
  "_format": "hh-sol-artifact-1",
  "contractName": "ProjectEscrow",
  "sourceName": "contracts/ProjectEscrow.sol",
  "abi": [
    {
      "inputs": [
        {
          "internalType": "address",
          "name": "_milestones",
          "type": "address"
        },
        {
          "internalType": "address",
          "name": "_governance",
          "type": "address"
        },
        {
          "internalType": "address",
          "name": "_refunds",
          "type": "address"
        },
        {
          "internalType": "address",
          "name": "_treasury",
          "type": "address"
        }
      ],
      "stateMutability": "nonpayable",
      "type": "constructor"
    },
    {
      "anonymous": false,
      "inputs": [
        {
          "indexed": true,
          "internalType": "uint256",
          "name": "projectId",
          "type": "uint256"
        },
        {
          "indexed": true,
          "internalType": "uint256",
          "name": "milestoneId",
          "type": "uint256"
        },
        {
          "indexed": false,
          "internalType": "uint256",
          "name": "amount",
          "type": "uint256"
        },
        {
          "indexed": false,
          "internalType": "address",
          "name": "to",
          "type": "address"
        }
      ],
      "name": "FundsReleased",
      "type": "event"
    },
    {
      "anonymous": false,
      "inputs": [
        {
          "indexed": true,
          "internalType": "uint256",
          "name": "projectId",
          "type": "uint256"
        },
        {
          "indexed": true,
          "internalType": "uint256",
          "name": "milestoneId",
          "type": "uint256"
        }
      ],
      "name": "MilestoneActivated",
      "type": "event"
    },
    {
      "anonymous": false,
      "inputs": [
        {
          "indexed": true,
          "internalType": "uint256",
          "name": "projectId",
          "type": "uint256"
        },
        {
          "indexed": true,
          "internalType": "uint256",
          "name": "milestoneId",
          "type": "uint256"
        },
        {
          "indexed": false,
          "internalType": "string",
          "name": "title",
          "type": "string"
        },
        {
          "indexed": false,
          "internalType": "uint256",
          "name": "amount",
          "type": "uint256"
        }
      ],
      "name": "MilestoneSubmitted",
      "type": "event"
    },
    {
      "anonymous": false,
      "inputs": [
        {
          "indexed": true,
          "internalType": "uint256",
          "name": "projectId",
          "type": "uint256"
        },
        {
          "indexed": true,
          "internalType": "address",
          "name": "backer",
          "type": "address"
        },
        {
          "indexed": false,
          "internalType": "uint256",
          "name": "amount",
          "type": "uint256"
        }
      ],
      "name": "PledgeMade",
      "type": "event"
    },
    {
      "anonymous": false,
      "inputs": [
        {
          "indexed": true,
          "internalType": "uint256",
          "name": "projectId",
          "type": "uint256"
        },
        {
          "indexed": true,
          "internalType": "address",
          "name": "creator",
          "type": "address"
        },
        {
          "indexed": false,
          "internalType": "uint256",
          "name": "fundingGoal",
          "type": "uint256"
        },
        {
          "indexed": false,
          "internalType": "uint256",
          "name": "deadline",
          "type": "uint256"
        }
      ],
      "name": "ProjectCreated",
      "type": "event"
    },
    {
      "anonymous": false,
      "inputs": [
        {
          "indexed": true,
          "internalType": "uint256",
          "name": "projectId",
          "type": "uint256"
        },
        {
          "indexed": true,
          "internalType": "address",
          "name": "backer",
          "type": "address"
        },
        {
          "indexed": false,
          "internalType": "uint256",
          "name": "amount",
          "type": "uint256"
        }
      ],
      "name": "RefundIssued",
      "type": "event"
    },
    {
      "anonymous": false,
      "inputs": [
        {
          "indexed": true,
          "internalType": "uint256",
          "name": "projectId",
          "type": "uint256"
        },
        {
          "indexed": true,
          "internalType": "uint256",
          "name": "milestoneId",
          "type": "uint256"
        },
        {
          "indexed": true,
          "internalType": "address",
          "name": "backer",
          "type": "address"
        },
        {
          "indexed": false,
          "internalType": "bool",
          "name": "approve",
          "type": "bool"
        },
        {
          "indexed": false,
          "internalType": "uint256",
          "name": "weight",
          "type": "uint256"
        }
      ],
      "name": "VoteCast",
      "type": "event"
    },
    {
      "anonymous": false,
      "inputs": [
        {
          "indexed": true,
          "internalType": "uint256",
          "name": "projectId",
          "type": "uint256"
        },
        {
          "indexed": true,
          "internalType": "uint256",
          "name": "milestoneId",
          "type": "uint256"
        }
      ],
      "name": "VotingStarted",
      "type": "event"
    },
    {
      "inputs": [
        {
          "internalType": "uint256",
          "name": "projectId",
          "type": "uint256"
        },
        {
          "internalType": "uint256",
          "name": "milestoneId",
          "type": "uint256"
        }
      ],
      "name": "activateMilestone",
      "outputs": [],
      "stateMutability": "nonpayable",
      "type": "function"
    },
    {
      "inputs": [
        {
          "internalType": "uint256",
          "name": "fundingGoalWei",
          "type": "uint256"
        },
        {
          "internalType": "uint256",
          "name": "deadlineTimestamp",
          "type": "uint256"
        }
      ],
      "name": "createProject",
      "outputs": [
        {
          "internalType": "uint256",
          "name": "",
          "type": "uint256"
        }
      ],
      "stateMutability": "nonpayable",
      "type": "function"
    },
    {
      "inputs": [],
      "name": "governanceContract",
      "outputs": [
        {
          "internalType": "address",
          "name": "",
          "type": "address"
        }
      ],
      "stateMutability": "view",
      "type": "function"
    },
    {
      "inputs": [],
      "name": "milestonesContract",
      "outputs": [
        {
          "internalType": "address",
          "name": "",
          "type": "address"
        }
      ],
      "stateMutability": "view",
      "type": "function"
    },
    {
      "inputs": [],
      "name": "nextProjectId",
      "outputs": [
        {
          "internalType": "uint256",
          "name": "",
          "type": "uint256"
        }
      ],
      "stateMutability": "view",
      "type": "function"
    },
    {
      "inputs": [
        {
          "internalType": "uint256",
          "name": "projectId",
          "type": "uint256"
        },
        {
          "internalType": "uint256",
          "name": "milestoneId",
          "type": "uint256"
        }
      ],
      "name": "openVoting",
      "outputs": [],
      "stateMutability": "nonpayable",
      "type": "function"
    },
    {
      "inputs": [],
      "name": "owner",
      "outputs": [
        {
          "internalType": "address",
          "name": "",
          "type": "address"
        }
      ],
      "stateMutability": "view",
      "type": "function"
    },
    {
      "inputs": [],
      "name": "platformFeeBps",
      "outputs": [
        {
          "internalType": "uint256",
          "name": "",
          "type": "uint256"
        }
      ],
      "stateMutability": "view",
      "type": "function"
    },
    {
      "inputs": [
        {
          "internalType": "uint256",
          "name": "projectId",
          "type": "uint256"
        }
      ],
      "name": "pledge",
      "outputs": [],
      "stateMutability": "payable",
      "type": "function"
    },
    {
      "inputs": [
        {
          "internalType": "uint256",
          "name": "",
          "type": "uint256"
        },
        {
          "internalType": "address",
          "name": "",
          "type": "address"
        }
      ],
      "name": "pledges",
      "outputs": [
        {
          "internalType": "uint256",
          "name": "",
          "type": "uint256"
        }
      ],
      "stateMutability": "view",
      "type": "function"
    },
    {
      "inputs": [
        {
          "internalType": "uint256",
          "name": "",
          "type": "uint256"
        }
      ],
      "name": "projects",
      "outputs": [
        {
          "internalType": "address",
          "name": "creator",
          "type": "address"
        },
        {
          "internalType": "uint256",
          "name": "fundingGoal",
          "type": "uint256"
        },
        {
          "internalType": "uint256",
          "name": "currentFunding",
          "type": "uint256"
        },
        {
          "internalType": "uint256",
          "name": "deadline",
          "type": "uint256"
        },
        {
          "internalType": "enum ProjectEscrow.ProjectStatus",
          "name": "status",
          "type": "uint8"
        },
        {
          "internalType": "bool",
          "name": "hasActiveMilestones",
          "type": "bool"
        }
      ],
      "stateMutability": "view",
      "type": "function"
    },
    {
      "inputs": [
        {
          "internalType": "uint256",
          "name": "projectId",
          "type": "uint256"
        },
        {
          "internalType": "uint256",
          "name": "milestoneId",
          "type": "uint256"
        }
      ],
      "name": "refundMilestone",
      "outputs": [],
      "stateMutability": "nonpayable",
      "type": "function"
    },
    {
      "inputs": [],
      "name": "refundsContract",
      "outputs": [
        {
          "internalType": "address",
          "name": "",
          "type": "address"
        }
      ],
      "stateMutability": "view",
      "type": "function"
    },
    {
      "inputs": [
        {
          "internalType": "uint256",
          "name": "projectId",
          "type": "uint256"
        },
        {
          "internalType": "uint256",
          "name": "milestoneId",
          "type": "uint256"
        }
      ],
      "name": "releaseFunds",
      "outputs": [],
      "stateMutability": "nonpayable",
      "type": "function"
    },
    {
      "inputs": [
        {
          "internalType": "uint256",
          "name": "projectId",
          "type": "uint256"
        }
      ],
      "name": "requestRefund",
      "outputs": [],
      "stateMutability": "nonpayable",
      "type": "function"
    },
    {
      "inputs": [
        {
          "internalType": "uint256",
          "name": "newFeeBps",
          "type": "uint256"
        }
      ],
      "name": "setPlatformFeeBps",
      "outputs": [],
      "stateMutability": "nonpayable",
      "type": "function"
    },
    {
      "inputs": [
        {
          "internalType": "uint256",
          "name": "projectId",
          "type": "uint256"
        },
        {
          "internalType": "string",
          "name": "title",
          "type": "string"
        },
        {
          "internalType": "uint256",
          "name": "amountWei",
          "type": "uint256"
        }
      ],
      "name": "submitMilestone",
      "outputs": [],
      "stateMutability": "nonpayable",
      "type": "function"
    },
    {
      "inputs": [],
      "name": "treasuryContract",
      "outputs": [
        {
          "internalType": "address",
          "name": "",
          "type": "address"
        }
      ],
      "stateMutability": "view",
      "type": "function"
    },
    {
      "inputs": [
        {
          "internalType": "uint256",
          "name": "projectId",
          "type": "uint256"
        },
        {
          "internalType": "uint256",
          "name": "milestoneId",
          "type": "uint256"
        },
        {
          "internalType": "bool",
          "name": "approve",
          "type": "bool"
        }
      ],
      "name": "voteOnMilestone",
      "outputs": [],
      "stateMutability": "nonpayable",
      "type": "function"
    }
  ],
  "bytecode": "0x60806040523480156200001157600080fd5b5060405162003856380380620038568339818101604052810190620000379190620001ef565b336000806101000a81548173ffffffffffffffffffffffffffffffffffffffff021916908373ffffffffffffffffffffffffffffffffffffffff16021790555083600160006101000a81548173ffffffffffffffffffffffffffffffffffffffff021916908373ffffffffffffffffffffffffffffffffffffffff16021790555082600260006101000a81548173ffffffffffffffffffffffffffffffffffffffff021916908373ffffffffffffffffffffffffffffffffffffffff16021790555081600360006101000a81548173ffffffffffffffffffffffffffffffffffffffff021916908373ffffffffffffffffffffffffffffffffffffffff16021790555080600460006101000a81548173ffffffffffffffffffffffffffffffffffffffff021916908373ffffffffffffffffffffffffffffffffffffffff1602179055505050505062000261565b600080fd5b600073ffffffffffffffffffffffffffffffffffffffff82169050919050565b6000620001b7826200018a565b9050919050565b620001c981620001aa565b8114620001d557600080fd5b50565b600081519050620001e981620001be565b92915050565b600080600080608085870312156200020c576200020b62000185565b5b60006200021c87828801620001d8565b94505060206200022f87828801620001d8565b93505060406200024287828801620001d8565b92505060606200025587828801620001d8565b91505092959194509250565b6135e580620002716000396000f3fe6080604052600436106101145760003560e01c80637326c9c0116100a0578063a4b2409e11610064578063a4b2409e14610395578063b172b222146103be578063c580c942146103e9578063df7843ae14610412578063e935b7b11461043b57610114565b80637326c9c0146102bd578063871b114e146102d95780638d443587146103025780638da5cb5b1461032d5780638e97f5241461035857610114565b806318da0011116100e757806318da0011146101ec57806322dcd13e14610217578063233eecdb146102425780632d8849ee1461026b57806364cae0911461029457610114565b806302da667b146101195780630e783d6d14610156578063107046bd1461017f57806310d49b06146101c1575b600080fd5b34801561012557600080fd5b50610140600480360381019061013b919061229f565b610466565b60405161014d91906122ee565b60405180910390f35b34801561016257600080fd5b5061017d60048036038101906101789190612341565b610687565b005b34801561018b57600080fd5b506101a660048036038101906101a19190612394565b61085c565b6040516101b896959493929190612488565b60405180910390f35b3480156101cd57600080fd5b506101d66108d2565b6040516101e391906124e9565b60405180910390f35b3480156101f857600080fd5b506102016108f8565b60405161020e91906124e9565b60405180910390f35b34801561022357600080fd5b5061022c61091e565b60405161023991906122ee565b60405180910390f35b34801561024e57600080fd5b5061026960048036038101906102649190612569565b610924565b005b34801561027757600080fd5b50610292600480360381019061028d919061229f565b610af5565b005b3480156102a057600080fd5b506102bb60048036038101906102b6919061229f565b610f35565b005b6102d760048036038101906102d29190612394565b61124f565b005b3480156102e557600080fd5b5061030060048036038101906102fb919061229f565b6114e5565b005b34801561030e57600080fd5b5061031761167b565b60405161032491906124e9565b60405180910390f35b34801561033957600080fd5b506103426116a1565b60405161034f91906124e9565b60405180910390f35b34801561036457600080fd5b5061037f600480360381019061037a9190612609565b6116c5565b60405161038c91906122ee565b60405180910390f35b3480156103a157600080fd5b506103bc60048036038101906103b79190612394565b6116ea565b005b3480156103ca57600080fd5b506103d3611b13565b6040516103e091906124e9565b60405180910390f35b3480156103f557600080fd5b50610410600480360381019061040b9190612394565b611b39565b005b34801561041e57600080fd5b506104396004803603810190610434919061229f565b611c16565b005b34801561044757600080fd5b50610450612259565b60405161045d91906122ee565b60405180910390f35b60008083116104aa576040517f08c379a00000000000000000000000000000000000000000000000000000000081526004016104a1906126a6565b60405180910390fd5b4282116104ec576040517f08c379a00000000000000000000000000000000000000000000000000000000081526004016104e390612712565b60405180910390fd5b60006005600081548092919061050190612761565b9190505590506040518060c001604052803373ffffffffffffffffffffffffffffffffffffffff168152602001858152602001600081526020018481526020016000600281111561055557610554612402565b5b8152602001600015158152506007600083815260200190815260200160002060008201518160000160006101000a81548173ffffffffffffffffffffffffffffffffffffffff021916908373ffffffffffffffffffffffffffffffffffffffff16021790555060208201518160010155604082015181600201556060820151816003015560808201518160040160006101000a81548160ff0219169083600281111561060457610603612402565b5b021790555060a08201518160040160016101000a81548160ff0219169083151502179055509050503373ffffffffffffffffffffffffffffffffffffffff16817fb5d890eb2df709d2f732ed81f328b444e49c1618ed8d64c53c0a040ec4040e1e86866040516106759291906127a9565b60405180910390a38091505092915050565b60006008600085815260200190815260200160002060003373ffffffffffffffffffffffffffffffffffffffff1673ffffffffffffffffffffffffffffffffffffffff168152602001908152602001600020541161071a576040517f08c379a00000000000000000000000000000000000000000000000000000000081526004016107119061281e565b60405180910390fd5b60006008600085815260200190815260200160002060003373ffffffffffffffffffffffffffffffffffffffff1673ffffffffffffffffffffffffffffffffffffffff168152602001908152602001600020549050600260009054906101000a900473ffffffffffffffffffffffffffffffffffffffff1673ffffffffffffffffffffffffffffffffffffffff166312791d8f85853386866040518663ffffffff1660e01b81526004016107d295949392919061283e565b600060405180830381600087803b1580156107ec57600080fd5b505af1158015610800573d6000803e3d6000fd5b505050503373ffffffffffffffffffffffffffffffffffffffff1683857fd72a296265de05f7f425107ca376651b68831fa700c5ed272487924e44532dc5858560405161084e929190612891565b60405180910390a450505050565b60076020528060005260406000206000915090508060000160009054906101000a900473ffffffffffffffffffffffffffffffffffffffff16908060010154908060020154908060030154908060040160009054906101000a900460ff16908060040160019054906101000a900460ff16905086565b600360009054906101000a900473ffffffffffffffffffffffffffffffffffffffff1681565b600460009054906101000a900473ffffffffffffffffffffffffffffffffffffffff1681565b60065481565b836007600082815260200190815260200160002060000160009054906101000a900473ffffffffffffffffffffffffffffffffffffffff1673ffffffffffffffffffffffffffffffffffffffff163373ffffffffffffffffffffffffffffffffffffffff16146109c9576040517f08c379a00000000000000000000000000000000000000000000000000000000081526004016109c090612906565b60405180910390fd5b60008211610a0c576040517f08c379a0000000000000000000000000000000000000000000000000000000008152600401610a0390612972565b60405180910390fd5b6000600160009054906101000a900473ffffffffffffffffffffffffffffffffffffffff1673ffffffffffffffffffffffffffffffffffffffff1663d3e4bd9587856040518363ffffffff1660e01b8152600401610a6b9291906127a9565b6020604051808303816000875af1158015610a8a573d6000803e3d6000fd5b505050506040513d601f19601f82011682018060405250810190610aae91906129a7565b905080867f7f4d80269cdce8cfe4d74c1ac8ede5d2940be71300d92461a70468bfa0888cac878787604051610ae593929190612a21565b60405180910390a3505050505050565b816007600082815260200190815260200160002060000160009054906101000a900473ffffffffffffffffffffffffffffffffffffffff1673ffffffffffffffffffffffffffffffffffffffff163373ffffffffffffffffffffffffffffffffffffffff1614610b9a576040517f08c379a0000000000000000000000000000000000000000000000000000000008152600401610b9190612906565b60405180910390fd5b60006007600085815260200190815260200160002090506000806000806000600160009054906101000a900473ffffffffffffffffffffffffffffffffffffffff1673ffffffffffffffffffffffffffffffffffffffff16638ed9895c8a8a6040518363ffffffff1660e01b8152600401610c169291906127a9565b60a060405180830381865afa158015610c33573d6000803e3d6000fd5b505050506040513d601f19601f82011682018060405250810190610c579190612a68565b9450945094509450945083610ca1576040517f08c379a0000000000000000000000000000000000000000000000000000000008152600401610c9890612b2f565b60405180910390fd5b81610ce1576040517f08c379a0000000000000000000000000000000000000000000000000000000008152600401610cd890612b9b565b60405180910390fd5b8215610d22576040517f08c379a0000000000000000000000000000000000000000000000000000000008152600401610d1990612c07565b60405180910390fd5b80610d62576040517f08c379a0000000000000000000000000000000000000000000000000000000008152600401610d5990612c73565b60405180910390fd5b600080600260009054906101000a900473ffffffffffffffffffffffffffffffffffffffff1673ffffffffffffffffffffffffffffffffffffffff1663cdae1fba8c8c6040518363ffffffff1660e01b8152600401610dc29291906127a9565b6040805180830381865afa158015610dde573d6000803e3d6000fd5b505050506040513d601f19601f82011682018060405250810190610e029190612c93565b9150915081811015610e49576040517f08c379a0000000000000000000000000000000000000000000000000000000008152600401610e4090612d1f565b60405180910390fd5b600160009054906101000a900473ffffffffffffffffffffffffffffffffffffffff1673ffffffffffffffffffffffffffffffffffffffff16630d75a82f8c8c6040518363ffffffff1660e01b8152600401610ea69291906127a9565b600060405180830381600087803b158015610ec057600080fd5b505af1158015610ed4573d6000803e3d6000fd5b50505050600073ffffffffffffffffffffffffffffffffffffffff168b7f7a482fdeb6bc9a1376f597068a214a7a39472bb2eff1b8cad21ba04f49ddca1b89604051610f2091906122ee565b60405180910390a35050505050505050505050565b816007600082815260200190815260200160002060000160009054906101000a900473ffffffffffffffffffffffffffffffffffffffff1673ffffffffffffffffffffffffffffffffffffffff163373ffffffffffffffffffffffffffffffffffffffff1614610fda576040517f08c379a0000000000000000000000000000000000000000000000000000000008152600401610fd190612906565b60405180910390fd5b600080600080600160009054906101000a900473ffffffffffffffffffffffffffffffffffffffff1673ffffffffffffffffffffffffffffffffffffffff16638ed9895c88886040518363ffffffff1660e01b815260040161103d9291906127a9565b60a060405180830381865afa15801561105a573d6000803e3d6000fd5b505050506040513d601f19601f8201168201806040525081019061107e9190612a68565b945094509450945050836110c7576040517f08c379a00000000000000000000000000000000000000000000000000000000081526004016110be90612b2f565b60405180910390fd5b81611107576040517f08c379a00000000000000000000000000000000000000000000000000000000081526004016110fe90612b9b565b60405180910390fd5b8215611148576040517f08c379a000000000000000000000000000000000000000000000000000000000815260040161113f90612c07565b60405180910390fd5b8015611189576040517f08c379a000000000000000000000000000000000000000000000000000000000815260040161118090612d8b565b60405180910390fd5b600160009054906101000a900473ffffffffffffffffffffffffffffffffffffffff1673ffffffffffffffffffffffffffffffffffffffff166390fe560988886040518363ffffffff1660e01b81526004016111e69291906127a9565b600060405180830381600087803b15801561120057600080fd5b505af1158015611214573d6000803e3d6000fd5b5050505085877ff8c022056754dbacca05aff710dc315a2fa7699ae9309fda403cd1e55c11d40f60405160405180910390a350505050505050565b6000600760008381526020019081526020016000209050600073ffffffffffffffffffffffffffffffffffffffff168160000160009054906101000a900473ffffffffffffffffffffffffffffffffffffffff1673ffffffffffffffffffffffffffffffffffffffff16036112f9576040517f08c379a00000000000000000000000000000000000000000000000000000000081526004016112f090612df7565b60405180910390fd5b8060030154421061133f576040517f08c379a000000000000000000000000000000000000000000000000000000000815260040161133690612e63565b60405180910390fd5b60003411611382576040517f08c379a000000000000000000000000000000000000000000000000000000000815260040161137990612ecf565b60405180910390fd5b8060040160019054906101000a900460ff166113d3576040517f08c379a00000000000000000000000000000000000000000000000000000000081526004016113ca90612f3b565b60405180910390fd5b348160020160008282546113e79190612f5b565b92505081905550346008600084815260200190815260200160002060003373ffffffffffffffffffffffffffffffffffffffff1673ffffffffffffffffffffffffffffffffffffffff168152602001908152602001600020600082825461144e9190612f5b565b925050819055503373ffffffffffffffffffffffffffffffffffffffff16827f32ce8e6b57cb1303806eaf9b3bf3609699c7a1a3231079bd7ece621d13c6c4bf3460405161149c91906122ee565b60405180910390a380600101548160020154106114e15760018160040160006101000a81548160ff021916908360028111156114db576114da612402565b5b02179055505b5050565b816007600082815260200190815260200160002060000160009054906101000a900473ffffffffffffffffffffffffffffffffffffffff1673ffffffffffffffffffffffffffffffffffffffff163373ffffffffffffffffffffffffffffffffffffffff161461158a576040517f08c379a000000000000000000000000000000000000000000000000000000000815260040161158190612906565b60405180910390fd5b600160009054906101000a900473ffffffffffffffffffffffffffffffffffffffff1673ffffffffffffffffffffffffffffffffffffffff1663871b114e84846040518363ffffffff1660e01b81526004016115e79291906127a9565b600060405180830381600087803b15801561160157600080fd5b505af1158015611615573d6000803e3d6000fd5b5050505060016007600085815260200190815260200160002060040160016101000a81548160ff02191690831515021790555081837f0362f7d82b732a58a9f25279ad1c3295db69e6646a4570e833ea97324a0c900160405160405180910390a3505050565b600160009054906101000a900473ffffffffffffffffffffffffffffffffffffffff1681565b60008054906101000a900473ffffffffffffffffffffffffffffffffffffffff1681565b6008602052816000526040600020602052806000526040600020600091509150505481565b600060076000838152602001908152602001600020905080600301544211611747576040517f08c379a000000000000000000000000000000000000000000000000000000000815260040161173e90612fdb565b60405180910390fd5b8060010154816002015410611791576040517f08c379a000000000000000000000000000000000000000000000000000000000815260040161178890613047565b60405180910390fd5b60006008600084815260200190815260200160002060003373ffffffffffffffffffffffffffffffffffffffff1673ffffffffffffffffffffffffffffffffffffffff16815260200190815260200160002054905060008111611829576040517f08c379a0000000000000000000000000000000000000000000000000000000008152600401611820906130b3565b60405180910390fd5b60006008600085815260200190815260200160002060003373ffffffffffffffffffffffffffffffffffffffff1673ffffffffffffffffffffffffffffffffffffffff168152602001908152602001600020819055508082600201600082825461189391906130d3565b92505081905550600360009054906101000a900473ffffffffffffffffffffffffffffffffffffffff1673ffffffffffffffffffffffffffffffffffffffff1663520025d08433846040518463ffffffff1660e01b81526004016118f993929190613107565b600060405180830381600087803b15801561191357600080fd5b505af1158015611927573d6000803e3d6000fd5b505050506000600360009054906101000a900473ffffffffffffffffffffffffffffffffffffffff1673ffffffffffffffffffffffffffffffffffffffff16638db1faf785336040518363ffffffff1660e01b815260040161198a92919061313e565b6020604051808303816000875af11580156119a9573d6000803e3d6000fd5b505050506040513d601f19601f820116820180604052508101906119cd91906129a7565b9050818114611a11576040517f08c379a0000000000000000000000000000000000000000000000000000000008152600401611a08906131b3565b60405180910390fd5b60003373ffffffffffffffffffffffffffffffffffffffff1682604051611a3790613204565b60006040518083038185875af1925050503d8060008114611a74576040519150601f19603f3d011682016040523d82523d6000602084013e611a79565b606091505b5050905080611abd576040517f08c379a0000000000000000000000000000000000000000000000000000000008152600401611ab490613265565b60405180910390fd5b3373ffffffffffffffffffffffffffffffffffffffff16857f7a482fdeb6bc9a1376f597068a214a7a39472bb2eff1b8cad21ba04f49ddca1b84604051611b0491906122ee565b60405180910390a35050505050565b600260009054906101000a900473ffffffffffffffffffffffffffffffffffffffff1681565b60008054906101000a900473ffffffffffffffffffffffffffffffffffffffff1673ffffffffffffffffffffffffffffffffffffffff163373ffffffffffffffffffffffffffffffffffffffff1614611bc7576040517f08c379a0000000000000000000000000000000000000000000000000000000008152600401611bbe906132d1565b60405180910390fd5b6103e8811115611c0c576040517f08c379a0000000000000000000000000000000000000000000000000000000008152600401611c039061333d565b60405180910390fd5b8060068190555050565b816007600082815260200190815260200160002060000160009054906101000a900473ffffffffffffffffffffffffffffffffffffffff1673ffffffffffffffffffffffffffffffffffffffff163373ffffffffffffffffffffffffffffffffffffffff1614611cbb576040517f08c379a0000000000000000000000000000000000000000000000000000000008152600401611cb290612906565b60405180910390fd5b6000600760008581526020019081526020016000209050600080600080600160009054906101000a900473ffffffffffffffffffffffffffffffffffffffff1673ffffffffffffffffffffffffffffffffffffffff16638ed9895c89896040518363ffffffff1660e01b8152600401611d359291906127a9565b60a060405180830381865afa158015611d52573d6000803e3d6000fd5b505050506040513d601f19601f82011682018060405250810190611d769190612a68565b94505093509350935082611dbf576040517f08c379a0000000000000000000000000000000000000000000000000000000008152600401611db690612b2f565b60405180910390fd5b80611dff576040517f08c379a0000000000000000000000000000000000000000000000000000000008152600401611df690612c73565b60405180910390fd5b8115611e40576040517f08c379a0000000000000000000000000000000000000000000000000000000008152600401611e3790612c07565b60405180910390fd5b83471015611e83576040517f08c379a0000000000000000000000000000000000000000000000000000000008152600401611e7a906133a9565b60405180910390fd5b600080600260009054906101000a900473ffffffffffffffffffffffffffffffffffffffff1673ffffffffffffffffffffffffffffffffffffffff1663cdae1fba8b8b6040518363ffffffff1660e01b8152600401611ee39291906127a9565b6040805180830381865afa158015611eff573d6000803e3d6000fd5b505050506040513d601f19601f82011682018060405250810190611f239190612c93565b91509150808211611f69576040517f08c379a0000000000000000000000000000000000000000000000000000000008152600401611f6090613415565b60405180910390fd5b600160009054906101000a900473ffffffffffffffffffffffffffffffffffffffff1673ffffffffffffffffffffffffffffffffffffffff16630d75a82f8b8b6040518363ffffffff1660e01b8152600401611fc69291906127a9565b600060405180830381600087803b158015611fe057600080fd5b505af1158015611ff4573d6000803e3d6000fd5b5050505060006127106006548861200b9190613435565b61201591906134a6565b90506000818861202591906130d3565b90508789600201600082825461203b91906130d3565b92505081905550600082111561211b576000600460009054906101000a900473ffffffffffffffffffffffffffffffffffffffff1673ffffffffffffffffffffffffffffffffffffffff168360405161209390613204565b60006040518083038185875af1925050503d80600081146120d0576040519150601f19603f3d011682016040523d82523d6000602084013e6120d5565b606091505b5050905080612119576040517f08c379a000000000000000000000000000000000000000000000000000000000815260040161211090613523565b60405180910390fd5b505b60008960000160009054906101000a900473ffffffffffffffffffffffffffffffffffffffff1673ffffffffffffffffffffffffffffffffffffffff168260405161216590613204565b60006040518083038185875af1925050503d80600081146121a2576040519150601f19603f3d011682016040523d82523d6000602084013e6121a7565b606091505b50509050806121eb576040517f08c379a00000000000000000000000000000000000000000000000000000000081526004016121e29061358f565b60405180910390fd5b8b8d7f7c23647db3cb03f6f0d92ad3dcde207e9a1640d0b15a34689bd0ea8c8400f8d58b8d60000160009054906101000a900473ffffffffffffffffffffffffffffffffffffffff1660405161224292919061313e565b60405180910390a350505050505050505050505050565b60055481565b600080fd5b600080fd5b6000819050919050565b61227c81612269565b811461228757600080fd5b50565b60008135905061229981612273565b92915050565b600080604083850312156122b6576122b561225f565b5b60006122c48582860161228a565b92505060206122d58582860161228a565b9150509250929050565b6122e881612269565b82525050565b600060208201905061230360008301846122df565b92915050565b60008115159050919050565b61231e81612309565b811461232957600080fd5b50565b60008135905061233b81612315565b92915050565b60008060006060848603121561235a5761235961225f565b5b60006123688682870161228a565b93505060206123798682870161228a565b925050604061238a8682870161232c565b9150509250925092565b6000602082840312156123aa576123a961225f565b5b60006123b88482850161228a565b91505092915050565b600073ffffffffffffffffffffffffffffffffffffffff82169050919050565b60006123ec826123c1565b9050919050565b6123fc816123e1565b82525050565b7f4e487b7100000000000000000000000000000000000000000000000000000000600052602160045260246000fd5b6003811061244257612441612402565b5b50565b600081905061245382612431565b919050565b600061246382612445565b9050919050565b61247381612458565b82525050565b61248281612309565b82525050565b600060c08201905061249d60008301896123f3565b6124aa60208301886122df565b6124b760408301876122df565b6124c460608301866122df565b6124d1608083018561246a565b6124de60a0830184612479565b979650505050505050565b60006020820190506124fe60008301846123f3565b92915050565b600080fd5b600080fd5b600080fd5b60008083601f84011261252957612528612504565b5b8235905067ffffffffffffffff81111561254657612545612509565b5b6020830191508360018202830111156125625761256161250e565b5b9250929050565b600080600080606085870312156125835761258261225f565b5b60006125918782880161228a565b945050602085013567ffffffffffffffff8111156125b2576125b1612264565b5b6125be87828801612513565b935093505060406125d18782880161228a565b91505092959194509250565b6125e6816123e1565b81146125f157600080fd5b50565b600081359050612603816125dd565b92915050565b600080604083850312156126205761261f61225f565b5b600061262e8582860161228a565b925050602061263f858286016125f4565b9150509250929050565b600082825260208201905092915050565b7f476f616c206d757374206265203e203000000000000000000000000000000000600082015250565b6000612690601083612649565b915061269b8261265a565b602082019050919050565b600060208201905081810360008301526126bf81612683565b9050919050565b7f446561646c696e65206d75737420626520667574757265000000000000000000600082015250565b60006126fc601783612649565b9150612707826126c6565b602082019050919050565b6000602082019050818103600083015261272b816126ef565b9050919050565b7f4e487b7100000000000000000000000000000000000000000000000000000000600052601160045260246000fd5b600061276c82612269565b91507fffffffffffffffffffffffffffffffffffffffffffffffffffffffffffffffff820361279e5761279d612732565b5b600182019050919050565b60006040820190506127be60008301856122df565b6127cb60208301846122df565b9392505050565b7f4e6f74206261636b657200000000000000000000000000000000000000000000600082015250565b6000612808600a83612649565b9150612813826127d2565b602082019050919050565b60006020820190508181036000830152612837816127fb565b9050919050565b600060a08201905061285360008301886122df565b61286060208301876122df565b61286d60408301866123f3565b61287a6060830185612479565b61288760808301846122df565b9695505050505050565b60006040820190506128a66000830185612479565b6128b360208301846122df565b9392505050565b7f4e6f742063726561746f72000000000000000000000000000000000000000000600082015250565b60006128f0600b83612649565b91506128fb826128ba565b602082019050919050565b6000602082019050818103600083015261291f816128e3565b9050919050565b7f416d6f756e74203e203000000000000000000000000000000000000000000000600082015250565b600061295c600a83612649565b915061296782612926565b602082019050919050565b6000602082019050818103600083015261298b8161294f565b9050919050565b6000815190506129a181612273565b92915050565b6000602082840312156129bd576129bc61225f565b5b60006129cb84828501612992565b91505092915050565b82818337600083830152505050565b6000601f19601f8301169050919050565b6000612a008385612649565b9350612a0d8385846129d4565b612a16836129e3565b840190509392505050565b60006040820190508181036000830152612a3c8185876129f4565b9050612a4b60208301846122df565b949350505050565b600081519050612a6281612315565b92915050565b600080600080600060a08688031215612a8457612a8361225f565b5b6000612a9288828901612992565b9550506020612aa388828901612a53565b9450506040612ab488828901612a53565b9350506060612ac588828901612a53565b9250506080612ad688828901612a53565b9150509295509295909350565b7f4e6f206d696c6573746f6e650000000000000000000000000000000000000000600082015250565b6000612b19600c83612649565b9150612b2482612ae3565b602082019050919050565b60006020820190508181036000830152612b4881612b0c565b9050919050565b7f4e6f742061637469766174656400000000000000000000000000000000000000600082015250565b6000612b85600d83612649565b9150612b9082612b4f565b602082019050919050565b60006020820190508181036000830152612bb481612b78565b9050919050565b7f416c72656164792072656c656173656400000000000000000000000000000000600082015250565b6000612bf1601083612649565b9150612bfc82612bbb565b602082019050919050565b60006020820190508181036000830152612c2081612be4565b9050919050565b7f566f74696e67206e6f7420737461727465640000000000000000000000000000600082015250565b6000612c5d601283612649565b9150612c6882612c27565b602082019050919050565b60006020820190508181036000830152612c8c81612c50565b9050919050565b60008060408385031215612caa57612ca961225f565b5b6000612cb885828601612992565b9250506020612cc985828601612992565b9150509250929050565b7f566f74696e67207061737365642c2063616e6e6f7420726566756e6400000000600082015250565b6000612d09601c83612649565b9150612d1482612cd3565b602082019050919050565b60006020820190508181036000830152612d3881612cfc565b9050919050565b7f566f74696e6720616c7265616479207374617274656400000000000000000000600082015250565b6000612d75601683612649565b9150612d8082612d3f565b602082019050919050565b60006020820190508181036000830152612da481612d68565b9050919050565b7f50726f6a656374206e6f7420666f756e64000000000000000000000000000000600082015250565b6000612de1601183612649565b9150612dec82612dab565b602082019050919050565b60006020820190508181036000830152612e1081612dd4565b9050919050565b7f46756e64696e6720656e64656400000000000000000000000000000000000000600082015250565b6000612e4d600d83612649565b9150612e5882612e17565b602082019050919050565b60006020820190508181036000830152612e7c81612e40565b9050919050565b7f53656e6420455448000000000000000000000000000000000000000000000000600082015250565b6000612eb9600883612649565b9150612ec482612e83565b602082019050919050565b60006020820190508181036000830152612ee881612eac565b9050919050565b7f4e6f20616374697665206d696c6573746f6e6573000000000000000000000000600082015250565b6000612f25601483612649565b9150612f3082612eef565b602082019050919050565b60006020820190508181036000830152612f5481612f18565b9050919050565b6000612f6682612269565b9150612f7183612269565b9250828201905080821115612f8957612f88612732565b5b92915050565b7f4e6f7420656e6465640000000000000000000000000000000000000000000000600082015250565b6000612fc5600983612649565b9150612fd082612f8f565b602082019050919050565b60006020820190508181036000830152612ff481612fb8565b9050919050565b7f476f616c206d6574000000000000000000000000000000000000000000000000600082015250565b6000613031600883612649565b915061303c82612ffb565b602082019050919050565b6000602082019050818103600083015261306081613024565b9050919050565b7f4e6f7468696e6720706c65646765640000000000000000000000000000000000600082015250565b600061309d600f83612649565b91506130a882613067565b602082019050919050565b600060208201905081810360008301526130cc81613090565b9050919050565b60006130de82612269565b91506130e983612269565b925082820390508181111561310157613100612732565b5b92915050565b600060608201905061311c60008301866122df565b61312960208301856123f3565b61313660408301846122df565b949350505050565b600060408201905061315360008301856122df565b61316060208301846123f3565b9392505050565b7f526566756e64733a206d69736d61746368000000000000000000000000000000600082015250565b600061319d601183612649565b91506131a882613167565b602082019050919050565b600060208201905081810360008301526131cc81613190565b9050919050565b600081905092915050565b50565b60006131ee6000836131d3565b91506131f9826131de565b600082019050919050565b600061320f826131e1565b9150819050919050565b7f526566756e64206661696c656400000000000000000000000000000000000000600082015250565b600061324f600d83612649565b915061325a82613219565b602082019050919050565b6000602082019050818103600083015261327e81613242565b9050919050565b7f4e6f74206f776e65720000000000000000000000000000000000000000000000600082015250565b60006132bb600983612649565b91506132c682613285565b602082019050919050565b600060208201905081810360008301526132ea816132ae565b9050919050565b7f46656520746f6f20686967680000000000000000000000000000000000000000600082015250565b6000613327600c83612649565b9150613332826132f1565b602082019050919050565b600060208201905081810360008301526133568161331a565b9050919050565b7f4e6f7420656e6f75676820657363726f77000000000000000000000000000000600082015250565b6000613393601183612649565b915061339e8261335d565b602082019050919050565b600060208201905081810360008301526133c281613386565b9050919050565b7f4e6f7420617070726f7665640000000000000000000000000000000000000000600082015250565b60006133ff600c83612649565b915061340a826133c9565b602082019050919050565b6000602082019050818103600083015261342e816133f2565b9050919050565b600061344082612269565b915061344b83612269565b925082820261345981612269565b915082820484148315176134705761346f612732565b5b5092915050565b7f4e487b7100000000000000000000000000000000000000000000000000000000600052601260045260246000fd5b60006134b182612269565b91506134bc83612269565b9250826134cc576134cb613477565b5b828204905092915050565b7f466565207472616e73666572206661696c656400000000000000000000000000600082015250565b600061350d601383612649565b9150613518826134d7565b602082019050919050565b6000602082019050818103600083015261353c81613500565b9050919050565b7f5472616e73666572206661696c65640000000000000000000000000000000000600082015250565b6000613579600f83612649565b915061358482613543565b602082019050919050565b600060208201905081810360008301526135a88161356c565b905091905056fea2646970667358221220ba694c3f6bd00a086dc4d0eaa6409999c794679607d231629af511aa34cf76e564736f6c63430008140033",
  "linkReferences": {},
  "deployedLinkReferences": {}
}