{
  "_format": "hh-sol-artifact-1",
  "contractName": "ProjectEscrow",
  "sourceName": "contracts/ProjectEscrow.sol",
  "abi": [
    {
      "inputs": [
        {
          "internalType": "address",
          "name": "_milestones",
          "type": "address"
        },
        {
          "internalType": "address",
          "name": "_governance",
          "type": "address"
        },
        {
          "internalType": "address",
          "name": "_refunds",
          "type": "address"
        },
        {
          "internalType": "address",
          "name": "_treasury",
          "type": "address"
        }
      ],
      "stateMutability": "nonpayable",
      "type": "constructor"
    },
    {
      "anonymous": false,
      "inputs": [
        {
          "indexed": true,
          "internalType": "uint256",
          "name": "projectId",
          "type": "uint256"
        },
        {
          "indexed": true,
          "internalType": "uint256",
          "name": "milestoneId",
          "type": "uint256"
        },
        {
          "indexed": false,
          "internalType": "uint256",
          "name": "amount",
          "type": "uint256"
        },
        {
          "indexed": false,
          "internalType": "address",
          "name": "to",
          "type": "address"
        }
      ],
      "name": "FundsReleased",
      "type": "event"
    },
    {
      "anonymous": false,
      "inputs": [
        {
          "indexed": true,
          "internalType": "uint256",
          "name": "projectId",
          "type": "uint256"
        },
        {
          "indexed": true,
          "internalType": "uint256",
          "name": "milestoneId",
          "type": "uint256"
        }
      ],
      "name": "MilestoneActivated",
      "type": "event"
    },
    {
      "anonymous": false,
      "inputs": [
        {
          "indexed": true,
          "internalType": "uint256",
          "name": "projectId",
          "type": "uint256"
        },
        {
          "indexed": true,
          "internalType": "uint256",
          "name": "milestoneId",
          "type": "uint256"
        },
        {
          "indexed": false,
          "internalType": "string",
          "name": "title",
          "type": "string"
        },
        {
          "indexed": false,
          "internalType": "uint256",
          "name": "amount",
          "type": "uint256"
        }
      ],
      "name": "MilestoneSubmitted",
      "type": "event"
    },
    {
      "anonymous": false,
      "inputs": [
        {
          "indexed": true,
          "internalType": "uint256",
          "name": "projectId",
          "type": "uint256"
        },
        {
          "indexed": true,
          "internalType": "address",
          "name": "backer",
          "type": "address"
        },
        {
          "indexed": false,
          "internalType": "uint256",
          "name": "amount",
          "type": "uint256"
        }
      ],
      "name": "PledgeMade",
      "type": "event"
    },
    {
      "anonymous": false,
      "inputs": [
        {
          "indexed": true,
          "internalType": "uint256",
          "name": "projectId",
          "type": "uint256"
        },
        {
          "indexed": true,
          "internalType": "address",
          "name": "creator",
          "type": "address"
        },
        {
          "indexed": false,
          "internalType": "uint256",
          "name": "fundingGoal",
          "type": "uint256"
        },
        {
          "indexed": false,
          "internalType": "uint256",
          "name": "deadline",
          "type": "uint256"
        }
      ],
      "name": "ProjectCreated",
      "type": "event"
    },
    {
      "anonymous": false,
      "inputs": [
        {
          "indexed": true,
          "internalType": "uint256",
          "name": "projectId",
          "type": "uint256"
        },
        {
          "indexed": true,
          "internalType": "address",
          "name": "backer",
          "type": "address"
        },
        {
          "indexed": false,
          "internalType": "uint256",
          "name": "amount",
          "type": "uint256"
        }
      ],
      "name": "RefundIssued",
      "type": "event"
    },
    {
      "anonymous": false,
      "inputs": [
        {
          "indexed": true,
          "internalType": "uint256",
          "name": "projectId",
          "type": "uint256"
        },
        {
          "indexed": true,
          "internalType": "uint256",
          "name": "milestoneId",
          "type": "uint256"
        },
        {
          "indexed": true,
          "internalType": "address",
          "name": "backer",
          "type": "address"
        },
        {
          "indexed": false,
          "internalType": "bool",
          "name": "approve",
          "type": "bool"
        },
        {
          "indexed": false,
          "internalType": "uint256",
          "name": "weight",
          "type": "uint256"
        }
      ],
      "name": "VoteCast",
      "type": "event"
    },
    {
      "inputs": [
        {
          "internalType": "uint256",
          "name": "projectId",
          "type": "uint256"
        },
        {
          "internalType": "uint256",
          "name": "milestoneId",
          "type": "uint256"
        }
      ],
      "name": "activateMilestone",
      "outputs": [],
      "stateMutability": "nonpayable",
      "type": "function"
    },
    {
      "inputs": [
        {
          "internalType": "uint256",
          "name": "fundingGoalWei",
          "type": "uint256"
        },
        {
          "internalType": "uint256",
          "name": "deadlineTimestamp",
          "type": "uint256"
        }
      ],
      "name": "createProject",
      "outputs": [
        {
          "internalType": "uint256",
          "name": "",
          "type": "uint256"
        }
      ],
      "stateMutability": "nonpayable",
      "type": "function"
    },
    {
      "inputs": [],
      "name": "governanceContract",
      "outputs": [
        {
          "internalType": "address",
          "name": "",
          "type": "address"
        }
      ],
      "stateMutability": "view",
      "type": "function"
    },
    {
      "inputs": [],
      "name": "milestonesContract",
      "outputs": [
        {
          "internalType": "address",
          "name": "",
          "type": "address"
        }
      ],
      "stateMutability": "view",
      "type": "function"
    },
    {
      "inputs": [],
      "name": "nextProjectId",
      "outputs": [
        {
          "internalType": "uint256",
          "name": "",
          "type": "uint256"
        }
      ],
      "stateMutability": "view",
      "type": "function"
    },
    {
      "inputs": [],
      "name": "owner",
      "outputs": [
        {
          "internalType": "address",
          "name": "",
          "type": "address"
        }
      ],
      "stateMutability": "view",
      "type": "function"
    },
    {
      "inputs": [],
      "name": "platformFeeBps",
      "outputs": [
        {
          "internalType": "uint256",
          "name": "",
          "type": "uint256"
        }
      ],
      "stateMutability": "view",
      "type": "function"
    },
    {
      "inputs": [
        {
          "internalType": "uint256",
          "name": "projectId",
          "type": "uint256"
        }
      ],
      "name": "pledge",
      "outputs": [],
      "stateMutability": "payable",
      "type": "function"
    },
    {
      "inputs": [
        {
          "internalType": "uint256",
          "name": "",
          "type": "uint256"
        },
        {
          "internalType": "address",
          "name": "",
          "type": "address"
        }
      ],
      "name": "pledges",
      "outputs": [
        {
          "internalType": "uint256",
          "name": "",
          "type": "uint256"
        }
      ],
      "stateMutability": "view",
      "type": "function"
    },
    {
      "inputs": [
        {
          "internalType": "uint256",
          "name": "",
          "type": "uint256"
        }
      ],
      "name": "projects",
      "outputs": [
        {
          "internalType": "address",
          "name": "creator",
          "type": "address"
        },
        {
          "internalType": "uint256",
          "name": "fundingGoal",
          "type": "uint256"
        },
        {
          "internalType": "uint256",
          "name": "currentFunding",
          "type": "uint256"
        },
        {
          "internalType": "uint256",
          "name": "deadline",
          "type": "uint256"
        },
        {
          "internalType": "enum ProjectEscrow.ProjectStatus",
          "name": "status",
          "type": "uint8"
        },
        {
          "internalType": "bool",
          "name": "hasActiveMilestones",
          "type": "bool"
        }
      ],
      "stateMutability": "view",
      "type": "function"
    },
    {
      "inputs": [],
      "name": "refundsContract",
      "outputs": [
        {
          "internalType": "address",
          "name": "",
          "type": "address"
        }
      ],
      "stateMutability": "view",
      "type": "function"
    },
    {
      "inputs": [
        {
          "internalType": "uint256",
          "name": "projectId",
          "type": "uint256"
        },
        {
          "internalType": "uint256",
          "name": "milestoneId",
          "type": "uint256"
        }
      ],
      "name": "releaseFunds",
      "outputs": [],
      "stateMutability": "nonpayable",
      "type": "function"
    },
    {
      "inputs": [
        {
          "internalType": "uint256",
          "name": "projectId",
          "type": "uint256"
        }
      ],
      "name": "requestRefund",
      "outputs": [],
      "stateMutability": "nonpayable",
      "type": "function"
    },
    {
      "inputs": [
        {
          "internalType": "uint256",
          "name": "newFeeBps",
          "type": "uint256"
        }
      ],
      "name": "setPlatformFeeBps",
      "outputs": [],
      "stateMutability": "nonpayable",
      "type": "function"
    },
    {
      "inputs": [
        {
          "internalType": "uint256",
          "name": "projectId",
          "type": "uint256"
        },
        {
          "internalType": "string",
          "name": "title",
          "type": "string"
        },
        {
          "internalType": "uint256",
          "name": "amountWei",
          "type": "uint256"
        }
      ],
      "name": "submitMilestone",
      "outputs": [],
      "stateMutability": "nonpayable",
      "type": "function"
    },
    {
      "inputs": [],
      "name": "treasuryContract",
      "outputs": [
        {
          "internalType": "address",
          "name": "",
          "type": "address"
        }
      ],
      "stateMutability": "view",
      "type": "function"
    },
    {
      "inputs": [
        {
          "internalType": "uint256",
          "name": "projectId",
          "type": "uint256"
        },
        {
          "internalType": "uint256",
          "name": "milestoneId",
          "type": "uint256"
        },
        {
          "internalType": "bool",
          "name": "approve",
          "type": "bool"
        }
      ],
      "name": "voteOnMilestone",
      "outputs": [],
      "stateMutability": "nonpayable",
      "type": "function"
    }
  ],
  "bytecode": "0x60806040523480156200001157600080fd5b5060405162002e8c38038062002e8c8339818101604052810190620000379190620001ef565b336000806101000a81548173ffffffffffffffffffffffffffffffffffffffff021916908373ffffffffffffffffffffffffffffffffffffffff16021790555083600160006101000a81548173ffffffffffffffffffffffffffffffffffffffff021916908373ffffffffffffffffffffffffffffffffffffffff16021790555082600260006101000a81548173ffffffffffffffffffffffffffffffffffffffff021916908373ffffffffffffffffffffffffffffffffffffffff16021790555081600360006101000a81548173ffffffffffffffffffffffffffffffffffffffff021916908373ffffffffffffffffffffffffffffffffffffffff16021790555080600460006101000a81548173ffffffffffffffffffffffffffffffffffffffff021916908373ffffffffffffffffffffffffffffffffffffffff1602179055505050505062000261565b600080fd5b600073ffffffffffffffffffffffffffffffffffffffff82169050919050565b6000620001b7826200018a565b9050919050565b620001c981620001aa565b8114620001d557600080fd5b50565b600081519050620001e981620001be565b92915050565b600080600080608085870312156200020c576200020b62000185565b5b60006200021c87828801620001d8565b94505060206200022f87828801620001d8565b93505060406200024287828801620001d8565b92505060606200025587828801620001d8565b91505092959194509250565b612c1b80620002716000396000f3fe6080604052600436106100fe5760003560e01c8063871b114e11610095578063a4b2409e11610064578063a4b2409e1461032d578063b172b22214610356578063c580c94214610381578063df7843ae146103aa578063e935b7b1146103d3576100fe565b8063871b114e146102715780638d4435871461029a5780638da5cb5b146102c55780638e97f524146102f0576100fe565b806318da0011116100d157806318da0011146101d657806322dcd13e14610201578063233eecdb1461022c5780637326c9c014610255576100fe565b806302da667b146101035780630e783d6d14610140578063107046bd1461016957806310d49b06146101ab575b600080fd5b34801561010f57600080fd5b5061012a60048036038101906101259190611a99565b6103fe565b6040516101379190611ae8565b60405180910390f35b34801561014c57600080fd5b5061016760048036038101906101629190611b3b565b61061f565b005b34801561017557600080fd5b50610190600480360381019061018b9190611b8e565b6107f4565b6040516101a296959493929190611c82565b60405180910390f35b3480156101b757600080fd5b506101c061086a565b6040516101cd9190611ce3565b60405180910390f35b3480156101e257600080fd5b506101eb610890565b6040516101f89190611ce3565b60405180910390f35b34801561020d57600080fd5b506102166108b6565b6040516102239190611ae8565b60405180910390f35b34801561023857600080fd5b50610253600480360381019061024e9190611d63565b6108bc565b005b61026f600480360381019061026a9190611b8e565b610a8d565b005b34801561027d57600080fd5b5061029860048036038101906102939190611a99565b610d23565b005b3480156102a657600080fd5b506102af610eb9565b6040516102bc9190611ce3565b60405180910390f35b3480156102d157600080fd5b506102da610edf565b6040516102e79190611ce3565b60405180910390f35b3480156102fc57600080fd5b5061031760048036038101906103129190611e03565b610f03565b6040516103249190611ae8565b60405180910390f35b34801561033957600080fd5b50610354600480360381019061034f9190611b8e565b610f28565b005b34801561036257600080fd5b5061036b611351565b6040516103789190611ce3565b60405180910390f35b34801561038d57600080fd5b506103a860048036038101906103a39190611b8e565b611377565b005b3480156103b657600080fd5b506103d160048036038101906103cc9190611a99565b611454565b005b3480156103df57600080fd5b506103e8611a53565b6040516103f59190611ae8565b60405180910390f35b6000808311610442576040517f08c379a000000000000000000000000000000000000000000000000000000000815260040161043990611ea0565b60405180910390fd5b428211610484576040517f08c379a000000000000000000000000000000000000000000000000000000000815260040161047b90611f0c565b60405180910390fd5b60006005600081548092919061049990611f5b565b9190505590506040518060c001604052803373ffffffffffffffffffffffffffffffffffffffff16815260200185815260200160008152602001848152602001600060028111156104ed576104ec611bfc565b5b8152602001600015158152506007600083815260200190815260200160002060008201518160000160006101000a81548173ffffffffffffffffffffffffffffffffffffffff021916908373ffffffffffffffffffffffffffffffffffffffff16021790555060208201518160010155604082015181600201556060820151816003015560808201518160040160006101000a81548160ff0219169083600281111561059c5761059b611bfc565b5b021790555060a08201518160040160016101000a81548160ff0219169083151502179055509050503373ffffffffffffffffffffffffffffffffffffffff16817fb5d890eb2df709d2f732ed81f328b444e49c1618ed8d64c53c0a040ec4040e1e868660405161060d929190611fa3565b60405180910390a38091505092915050565b60006008600085815260200190815260200160002060003373ffffffffffffffffffffffffffffffffffffffff1673ffffffffffffffffffffffffffffffffffffffff16815260200190815260200160002054116106b2576040517f08c379a00000000000000000000000000000000000000000000000000000000081526004016106a990612018565b60405180910390fd5b60006008600085815260200190815260200160002060003373ffffffffffffffffffffffffffffffffffffffff1673ffffffffffffffffffffffffffffffffffffffff168152602001908152602001600020549050600260009054906101000a900473ffffffffffffffffffffffffffffffffffffffff1673ffffffffffffffffffffffffffffffffffffffff166312791d8f85853386866040518663ffffffff1660e01b815260040161076a959493929190612038565b600060405180830381600087803b15801561078457600080fd5b505af1158015610798573d6000803e3d6000fd5b505050503373ffffffffffffffffffffffffffffffffffffffff1683857fd72a296265de05f7f425107ca376651b68831fa700c5ed272487924e44532dc585856040516107e692919061208b565b60405180910390a450505050565b60076020528060005260406000206000915090508060000160009054906101000a900473ffffffffffffffffffffffffffffffffffffffff16908060010154908060020154908060030154908060040160009054906101000a900460ff16908060040160019054906101000a900460ff16905086565b600360009054906101000a900473ffffffffffffffffffffffffffffffffffffffff1681565b600460009054906101000a900473ffffffffffffffffffffffffffffffffffffffff1681565b60065481565b836007600082815260200190815260200160002060000160009054906101000a900473ffffffffffffffffffffffffffffffffffffffff1673ffffffffffffffffffffffffffffffffffffffff163373ffffffffffffffffffffffffffffffffffffffff1614610961576040517f08c379a000000000000000000000000000000000000000000000000000000000815260040161095890612100565b60405180910390fd5b600082116109a4576040517f08c379a000000000000000000000000000000000000000000000000000000000815260040161099b9061216c565b60405180910390fd5b6000600160009054906101000a900473ffffffffffffffffffffffffffffffffffffffff1673ffffffffffffffffffffffffffffffffffffffff1663d3e4bd9587856040518363ffffffff1660e01b8152600401610a03929190611fa3565b6020604051808303816000875af1158015610a22573d6000803e3d6000fd5b505050506040513d601f19601f82011682018060405250810190610a4691906121a1565b905080867f7f4d80269cdce8cfe4d74c1ac8ede5d2940be71300d92461a70468bfa0888cac878787604051610a7d9392919061221b565b60405180910390a3505050505050565b6000600760008381526020019081526020016000209050600073ffffffffffffffffffffffffffffffffffffffff168160000160009054906101000a900473ffffffffffffffffffffffffffffffffffffffff1673ffffffffffffffffffffffffffffffffffffffff1603610b37576040517f08c379a0000000000000000000000000000000000000000000000000000000008152600401610b2e90612299565b60405180910390fd5b80600301544210610b7d576040517f08c379a0000000000000000000000000000000000000000000000000000000008152600401610b7490612305565b60405180910390fd5b60003411610bc0576040517f08c379a0000000000000000000000000000000000000000000000000000000008152600401610bb790612371565b60405180910390fd5b8060040160019054906101000a900460ff16610c11576040517f08c379a0000000000000000000000000000000000000000000000000000000008152600401610c08906123dd565b60405180910390fd5b34816002016000828254610c2591906123fd565b92505081905550346008600084815260200190815260200160002060003373ffffffffffffffffffffffffffffffffffffffff1673ffffffffffffffffffffffffffffffffffffffff1681526020019081526020016000206000828254610c8c91906123fd565b925050819055503373ffffffffffffffffffffffffffffffffffffffff16827f32ce8e6b57cb1303806eaf9b3bf3609699c7a1a3231079bd7ece621d13c6c4bf34604051610cda9190611ae8565b60405180910390a38060010154816002015410610d1f5760018160040160006101000a81548160ff02191690836002811115610d1957610d18611bfc565b5b02179055505b5050565b816007600082815260200190815260200160002060000160009054906101000a900473ffffffffffffffffffffffffffffffffffffffff1673ffffffffffffffffffffffffffffffffffffffff163373ffffffffffffffffffffffffffffffffffffffff1614610dc8576040517f08c379a0000000000000000000000000000000000000000000000000000000008152600401610dbf90612100565b60405180910390fd5b600160009054906101000a900473ffffffffffffffffffffffffffffffffffffffff1673ffffffffffffffffffffffffffffffffffffffff1663871b114e84846040518363ffffffff1660e01b8152600401610e25929190611fa3565b600060405180830381600087803b158015610e3f57600080fd5b505af1158015610e53573d6000803e3d6000fd5b5050505060016007600085815260200190815260200160002060040160016101000a81548160ff02191690831515021790555081837f0362f7d82b732a58a9f25279ad1c3295db69e6646a4570e833ea97324a0c900160405160405180910390a3505050565b600160009054906101000a900473ffffffffffffffffffffffffffffffffffffffff1681565b60008054906101000a900473ffffffffffffffffffffffffffffffffffffffff1681565b6008602052816000526040600020602052806000526040600020600091509150505481565b600060076000838152602001908152602001600020905080600301544211610f85576040517f08c379a0000000000000000000000000000000000000000000000000000000008152600401610f7c9061247d565b60405180910390fd5b8060010154816002015410610fcf576040517f08c379a0000000000000000000000000000000000000000000000000000000008152600401610fc6906124e9565b60405180910390fd5b60006008600084815260200190815260200160002060003373ffffffffffffffffffffffffffffffffffffffff1673ffffffffffffffffffffffffffffffffffffffff16815260200190815260200160002054905060008111611067576040517f08c379a000000000000000000000000000000000000000000000000000000000815260040161105e90612555565b60405180910390fd5b60006008600085815260200190815260200160002060003373ffffffffffffffffffffffffffffffffffffffff1673ffffffffffffffffffffffffffffffffffffffff16815260200190815260200160002081905550808260020160008282546110d19190612575565b92505081905550600360009054906101000a900473ffffffffffffffffffffffffffffffffffffffff1673ffffffffffffffffffffffffffffffffffffffff1663520025d08433846040518463ffffffff1660e01b8152600401611137939291906125a9565b600060405180830381600087803b15801561115157600080fd5b505af1158015611165573d6000803e3d6000fd5b505050506000600360009054906101000a900473ffffffffffffffffffffffffffffffffffffffff1673ffffffffffffffffffffffffffffffffffffffff16638db1faf785336040518363ffffffff1660e01b81526004016111c89291906125e0565b6020604051808303816000875af11580156111e7573d6000803e3d6000fd5b505050506040513d601f19601f8201168201806040525081019061120b91906121a1565b905081811461124f576040517f08c379a000000000000000000000000000000000000000000000000000000000815260040161124690612655565b60405180910390fd5b60003373ffffffffffffffffffffffffffffffffffffffff1682604051611275906126a6565b60006040518083038185875af1925050503d80600081146112b2576040519150601f19603f3d011682016040523d82523d6000602084013e6112b7565b606091505b50509050806112fb576040517f08c379a00000000000000000000000000000000000000000000000000000000081526004016112f290612707565b60405180910390fd5b3373ffffffffffffffffffffffffffffffffffffffff16857f7a482fdeb6bc9a1376f597068a214a7a39472bb2eff1b8cad21ba04f49ddca1b846040516113429190611ae8565b60405180910390a35050505050565b600260009054906101000a900473ffffffffffffffffffffffffffffffffffffffff1681565b60008054906101000a900473ffffffffffffffffffffffffffffffffffffffff1673ffffffffffffffffffffffffffffffffffffffff163373ffffffffffffffffffffffffffffffffffffffff1614611405576040517f08c379a00000000000000000000000000000000000000000000000000000000081526004016113fc90612773565b60405180910390fd5b6103e881111561144a576040517f08c379a0000000000000000000000000000000000000000000000000000000008152600401611441906127df565b60405180910390fd5b8060068190555050565b816007600082815260200190815260200160002060000160009054906101000a900473ffffffffffffffffffffffffffffffffffffffff1673ffffffffffffffffffffffffffffffffffffffff163373ffffffffffffffffffffffffffffffffffffffff16146114f9576040517f08c379a00000000000000000000000000000000000000000000000000000000081526004016114f090612100565b60405180910390fd5b60006007600085815260200190815260200160002090506000806000600160009054906101000a900473ffffffffffffffffffffffffffffffffffffffff1673ffffffffffffffffffffffffffffffffffffffff16638ed9895c88886040518363ffffffff1660e01b8152600401611572929190611fa3565b608060405180830381865afa15801561158f573d6000803e3d6000fd5b505050506040513d601f19601f820116820180604052508101906115b39190612814565b50925092509250816115fa576040517f08c379a00000000000000000000000000000000000000000000000000000000081526004016115f1906128c7565b60405180910390fd5b801561163b576040517f08c379a000000000000000000000000000000000000000000000000000000000815260040161163290612933565b60405180910390fd5b8247101561167e576040517f08c379a00000000000000000000000000000000000000000000000000000000081526004016116759061299f565b60405180910390fd5b600080600260009054906101000a900473ffffffffffffffffffffffffffffffffffffffff1673ffffffffffffffffffffffffffffffffffffffff1663cdae1fba8a8a6040518363ffffffff1660e01b81526004016116de929190611fa3565b6040805180830381865afa1580156116fa573d6000803e3d6000fd5b505050506040513d601f19601f8201168201806040525081019061171e91906129bf565b91509150808211611764576040517f08c379a000000000000000000000000000000000000000000000000000000000815260040161175b90612a4b565b60405180910390fd5b600160009054906101000a900473ffffffffffffffffffffffffffffffffffffffff1673ffffffffffffffffffffffffffffffffffffffff16630d75a82f8a8a6040518363ffffffff1660e01b81526004016117c1929190611fa3565b600060405180830381600087803b1580156117db57600080fd5b505af11580156117ef573d6000803e3d6000fd5b505050506000612710600654876118069190612a6b565b6118109190612adc565b9050600081876118209190612575565b9050868860020160008282546118369190612575565b925050819055506000821115611916576000600460009054906101000a900473ffffffffffffffffffffffffffffffffffffffff1673ffffffffffffffffffffffffffffffffffffffff168360405161188e906126a6565b60006040518083038185875af1925050503d80600081146118cb576040519150601f19603f3d011682016040523d82523d6000602084013e6118d0565b606091505b5050905080611914576040517f08c379a000000000000000000000000000000000000000000000000000000000815260040161190b90612b59565b60405180910390fd5b505b60008860000160009054906101000a900473ffffffffffffffffffffffffffffffffffffffff1673ffffffffffffffffffffffffffffffffffffffff1682604051611960906126a6565b60006040518083038185875af1925050503d806000811461199d576040519150601f19603f3d011682016040523d82523d6000602084013e6119a2565b606091505b50509050806119e6576040517f08c379a00000000000000000000000000000000000000000000000000000000081526004016119dd90612bc5565b60405180910390fd5b8a8c7f7c23647db3cb03f6f0d92ad3dcde207e9a1640d0b15a34689bd0ea8c8400f8d58a8c60000160009054906101000a900473ffffffffffffffffffffffffffffffffffffffff16604051611a3d9291906125e0565b60405180910390a3505050505050505050505050565b60055481565b600080fd5b600080fd5b6000819050919050565b611a7681611a63565b8114611a8157600080fd5b50565b600081359050611a9381611a6d565b92915050565b60008060408385031215611ab057611aaf611a59565b5b6000611abe85828601611a84565b9250506020611acf85828601611a84565b9150509250929050565b611ae281611a63565b82525050565b6000602082019050611afd6000830184611ad9565b92915050565b60008115159050919050565b611b1881611b03565b8114611b2357600080fd5b50565b600081359050611b3581611b0f565b92915050565b600080600060608486031215611b5457611b53611a59565b5b6000611b6286828701611a84565b9350506020611b7386828701611a84565b9250506040611b8486828701611b26565b9150509250925092565b600060208284031215611ba457611ba3611a59565b5b6000611bb284828501611a84565b91505092915050565b600073ffffffffffffffffffffffffffffffffffffffff82169050919050565b6000611be682611bbb565b9050919050565b611bf681611bdb565b82525050565b7f4e487b7100000000000000000000000000000000000000000000000000000000600052602160045260246000fd5b60038110611c3c57611c3b611bfc565b5b50565b6000819050611c4d82611c2b565b919050565b6000611c5d82611c3f565b9050919050565b611c6d81611c52565b82525050565b611c7c81611b03565b82525050565b600060c082019050611c976000830189611bed565b611ca46020830188611ad9565b611cb16040830187611ad9565b611cbe6060830186611ad9565b611ccb6080830185611c64565b611cd860a0830184611c73565b979650505050505050565b6000602082019050611cf86000830184611bed565b92915050565b600080fd5b600080fd5b600080fd5b60008083601f840112611d2357611d22611cfe565b5b8235905067ffffffffffffffff811115611d4057611d3f611d03565b5b602083019150836001820283011115611d5c57611d5b611d08565b5b9250929050565b60008060008060608587031215611d7d57611d7c611a59565b5b6000611d8b87828801611a84565b945050602085013567ffffffffffffffff811115611dac57611dab611a5e565b5b611db887828801611d0d565b93509350506040611dcb87828801611a84565b91505092959194509250565b611de081611bdb565b8114611deb57600080fd5b50565b600081359050611dfd81611dd7565b92915050565b60008060408385031215611e1a57611e19611a59565b5b6000611e2885828601611a84565b9250506020611e3985828601611dee565b9150509250929050565b600082825260208201905092915050565b7f476f616c206d757374206265203e203000000000000000000000000000000000600082015250565b6000611e8a601083611e43565b9150611e9582611e54565b602082019050919050565b60006020820190508181036000830152611eb981611e7d565b9050919050565b7f446561646c696e65206d75737420626520667574757265000000000000000000600082015250565b6000611ef6601783611e43565b9150611f0182611ec0565b602082019050919050565b60006020820190508181036000830152611f2581611ee9565b9050919050565b7f4e487b7100000000000000000000000000000000000000000000000000000000600052601160045260246000fd5b6000611f6682611a63565b91507fffffffffffffffffffffffffffffffffffffffffffffffffffffffffffffffff8203611f9857611f97611f2c565b5b600182019050919050565b6000604082019050611fb86000830185611ad9565b611fc56020830184611ad9565b9392505050565b7f4e6f74206261636b657200000000000000000000000000000000000000000000600082015250565b6000612002600a83611e43565b915061200d82611fcc565b602082019050919050565b6000602082019050818103600083015261203181611ff5565b9050919050565b600060a08201905061204d6000830188611ad9565b61205a6020830187611ad9565b6120676040830186611bed565b6120746060830185611c73565b6120816080830184611ad9565b9695505050505050565b60006040820190506120a06000830185611c73565b6120ad6020830184611ad9565b9392505050565b7f4e6f742063726561746f72000000000000000000000000000000000000000000600082015250565b60006120ea600b83611e43565b91506120f5826120b4565b602082019050919050565b60006020820190508181036000830152612119816120dd565b9050919050565b7f416d6f756e74203e203000000000000000000000000000000000000000000000600082015250565b6000612156600a83611e43565b915061216182612120565b602082019050919050565b6000602082019050818103600083015261218581612149565b9050919050565b60008151905061219b81611a6d565b92915050565b6000602082840312156121b7576121b6611a59565b5b60006121c58482850161218c565b91505092915050565b82818337600083830152505050565b6000601f19601f8301169050919050565b60006121fa8385611e43565b93506122078385846121ce565b612210836121dd565b840190509392505050565b600060408201905081810360008301526122368185876121ee565b90506122456020830184611ad9565b949350505050565b7f50726f6a656374206e6f7420666f756e64000000000000000000000000000000600082015250565b6000612283601183611e43565b915061228e8261224d565b602082019050919050565b600060208201905081810360008301526122b281612276565b9050919050565b7f46756e64696e6720656e64656400000000000000000000000000000000000000600082015250565b60006122ef600d83611e43565b91506122fa826122b9565b602082019050919050565b6000602082019050818103600083015261231e816122e2565b9050919050565b7f53656e6420455448000000000000000000000000000000000000000000000000600082015250565b600061235b600883611e43565b915061236682612325565b602082019050919050565b6000602082019050818103600083015261238a8161234e565b9050919050565b7f4e6f20616374697665206d696c6573746f6e6573000000000000000000000000600082015250565b60006123c7601483611e43565b91506123d282612391565b602082019050919050565b600060208201905081810360008301526123f6816123ba565b9050919050565b600061240882611a63565b915061241383611a63565b925082820190508082111561242b5761242a611f2c565b5b92915050565b7f4e6f7420656e6465640000000000000000000000000000000000000000000000600082015250565b6000612467600983611e43565b915061247282612431565b602082019050919050565b600060208201905081810360008301526124968161245a565b9050919050565b7f476f616c206d6574000000000000000000000000000000000000000000000000600082015250565b60006124d3600883611e43565b91506124de8261249d565b602082019050919050565b60006020820190508181036000830152612502816124c6565b9050919050565b7f4e6f7468696e6720706c65646765640000000000000000000000000000000000600082015250565b600061253f600f83611e43565b915061254a82612509565b602082019050919050565b6000602082019050818103600083015261256e81612532565b9050919050565b600061258082611a63565b915061258b83611a63565b92508282039050818111156125a3576125a2611f2c565b5b92915050565b60006060820190506125be6000830186611ad9565b6125cb6020830185611bed565b6125d86040830184611ad9565b949350505050565b60006040820190506125f56000830185611ad9565b6126026020830184611bed565b9392505050565b7f526566756e64733a206d69736d61746368000000000000000000000000000000600082015250565b600061263f601183611e43565b915061264a82612609565b602082019050919050565b6000602082019050818103600083015261266e81612632565b9050919050565b600081905092915050565b50565b6000612690600083612675565b915061269b82612680565b600082019050919050565b60006126b182612683565b9150819050919050565b7f526566756e64206661696c656400000000000000000000000000000000000000600082015250565b60006126f1600d83611e43565b91506126fc826126bb565b602082019050919050565b60006020820190508181036000830152612720816126e4565b9050919050565b7f4e6f74206f776e65720000000000000000000000000000000000000000000000600082015250565b600061275d600983611e43565b915061276882612727565b602082019050919050565b6000602082019050818103600083015261278c81612750565b9050919050565b7f46656520746f6f20686967680000000000000000000000000000000000000000600082015250565b60006127c9600c83611e43565b91506127d482612793565b602082019050919050565b600060208201905081810360008301526127f8816127bc565b9050919050565b60008151905061280e81611b0f565b92915050565b6000806000806080858703121561282e5761282d611a59565b5b600061283c8782880161218c565b945050602061284d878288016127ff565b935050604061285e878288016127ff565b925050606061286f878288016127ff565b91505092959194509250565b7f4e6f206d696c6573746f6e650000000000000000000000000000000000000000600082015250565b60006128b1600c83611e43565b91506128bc8261287b565b602082019050919050565b600060208201905081810360008301526128e0816128a4565b9050919050565b7f416c72656164792072656c656173656400000000000000000000000000000000600082015250565b600061291d601083611e43565b9150612928826128e7565b602082019050919050565b6000602082019050818103600083015261294c81612910565b9050919050565b7f4e6f7420656e6f75676820657363726f77000000000000000000000000000000600082015250565b6000612989601183611e43565b915061299482612953565b602082019050919050565b600060208201905081810360008301526129b88161297c565b9050919050565b600080604083850312156129d6576129d5611a59565b5b60006129e48582860161218c565b92505060206129f58582860161218c565b9150509250929050565b7f4e6f7420617070726f7665640000000000000000000000000000000000000000600082015250565b6000612a35600c83611e43565b9150612a40826129ff565b602082019050919050565b60006020820190508181036000830152612a6481612a28565b9050919050565b6000612a7682611a63565b9150612a8183611a63565b9250828202612a8f81611a63565b91508282048414831517612aa657612aa5611f2c565b5b5092915050565b7f4e487b7100000000000000000000000000000000000000000000000000000000600052601260045260246000fd5b6000612ae782611a63565b9150612af283611a63565b925082612b0257612b01612aad565b5b828204905092915050565b7f466565207472616e73666572206661696c656400000000000000000000000000600082015250565b6000612b43601383611e43565b9150612b4e82612b0d565b602082019050919050565b60006020820190508181036000830152612b7281612b36565b9050919050565b7f5472616e73666572206661696c65640000000000000000000000000000000000600082015250565b6000612baf600f83611e43565b9150612bba82612b79565b602082019050919050565b60006020820190508181036000830152612bde81612ba2565b905091905056fea26469706673582212207b3f0bd64329279aadc59b29a62404dbb99f5170843459b964b616dfa2ca056264736f6c63430008140033",
  "linkReferences": {},
  "deployedLinkReferences": {}
}